S00F00004279676765726E2E7372656347
S11300000C9438000C9442000C9442000C9442006E
S11300100C9442000C9442000C9442000C94420054
S11300200C9442000C9442000C9442000C94420044
S11300300C9442000C9442000C9442000C94420034
S11300400C9442000C9442000C9442000C94420024
S11300500C9442000C9442000C9442000C94420014
S11300600C9442000C9442000C9442000C94420004
S113007011241FBECFEFD4E0DEBFCDBF0E944400E9
S11300800C9462000C94000021E030E081E090E0E8
S11300907FEF472F60E050E0F1E0E0E002C0862F00
S11300A0952F1ABA47BB0196883EA3E09A07CCF372
S11300B0232B21F478BB2F2F3E2FF1CF18BA262FF4
S10B00C0352FEDCFF894FFCFBA
S9030000FC
