S00F00004279676765726E2E7372656347
S11300000C9438000C944D000C944D000C944D004D
S11300100C944D000C944D000C944D000C944D0028
S11300200C944D000C944D000C944D000C944D0018
S11300300C944D000C944D000C944D000C944D0008
S11300400C944D000C944D000C944D000C944D00F8
S11300500C944D000C944D000C944D000C944D00E8
S11300600C944D000C944D000C944D000C944D00D8
S113007011241FBECFEFD4E0DEBFCDBF11E0A0E05E
S1130080B1E0E0EEF0E002C005900D92A230B107BD
S1130090D9F70E944F000C946E000C9400000E944B
S11300A06600CFEF1ABAC7BB2FEF8FE791E021505C
S11300B080409040E1F700C000C0809100010E94A0
S11300C06200F0CF5D9BFECF8CB9089510BC8FE128
S11300D089B988E18AB98EE880BD0895F894FFCF84
S10500E06B00AF
S9030000FC
