S00F00004279676765726E2E7372656347
S11300000C9438000C9455000C9455000C94550035
S11300100C9455000C9455000C9455000C94550008
S11300200C9455000C9455000C9455000C945500F8
S11300300C9455000C9455000C9455000C945500E8
S11300400C9455000C9455000C9455000C945500D8
S11300500C9455000C9455000C9455000C945500C8
S11300600C9455000C9455000C9455000C945500B8
S113007011241FBECFEFD4E0DEBFCDBF11E0A0E05E
S1130080B1E0EEE9FEE002C005900D92A833B1079D
S1130090D9F721E0A8E3B1E001C01D92A334B2076F
S11300A0E1F70E945E000C944D070C94000085B7A4
S11300B0806885BF80B7806280BF0895CF93DF9347
S11300C0CDB7DEB764970FB6F894DEBF0FBECDBFD1
S11300D08FEF81BB0E94E0020E94D1020E94570070
S11300E00E9439020E942C02789484E08983FE01E4
S11300F0339680E081938F5F8830E1F76894992488
S113010093F80F2EF8E0AF2EF1E0BF2EF02D712CF6
S1130110812C6E018DE0C80ED11C0F2EFCE0EF2E59
S1130120F1E0FF2EF02D9A820981192D2B813C815B
S11301304D815E816F81788589859A850E94E90069
S1130140CE010B960E9441018B85843061F7BF92EA
S1130150AF920E9439038C850F900F90882399F0F9
S1130160072D182DDF92CF92FF92EF920E94390350
S11301700F5F1F4F8C8590E00F900F900F900F90A2
S1130180081719077CF38AE090E00E944D03CBCF57
S11301904FEF64E680E60E94C50140E460EE8FE024
S11301A00E94C5014FE06FE08BE20E94C50181E02F
S11301B080933801089580E30E94EC019695879519
S11301C0969587959695879521E082278170992742
S11301D00895EF92FF920F931F93CF93DF93CDB7C0
S11301E0DEB72A970FB6F894DEBF0FBECDBF0983E2
S11301F0E12E1A832B833C834D835E836F83788740
S113020089879A870E94DB00892B71F1602F70E047
S113021081E30E9408021F920F938FE091E09F9365
S11302208F930E9439036E2D6F7070E085E30E94F6
S113023008020F900F900F900F90EE2099F08E010E
S11302400D5F1F4F86E3E80E0F2EF6E3FF2EF02D11
S1130250F80161918F0170E08F2D0E940802F394E0
S1130260FE10F6CF0E9433022A960FB6F894DEBF32
S11302700FBECDBFDF91CF911F910F91FF90EF90F3
S113028008957F928F929F92AF92BF92CF92DF9206
S1130290EF92FF920F931F93CF93DF93CDB7DEB707
S11302A02A970FB6F894DEBF0FBECDBF7C019091A4
S11302B03801913009F048C084E191E09F938F9315
S11302C00E94390381E60E94EC01882E5C01BB2464
S11302D0BF92AF9288E191E09F938F930E9439037C
S11302E085E60E94EC018F70782E0F900F900F908E
S11302F00F900F900F90A1F08E010D5F1F4F6801BA
S1130300C80ED11C0F2EF6E69F2EF02D892D0E94CB
S1130310EC01F80181938F019394EC15FD05B1F77D
S1130320BF92AF9222E231E03F932F930E943903B0
S11303301092380141E06FEF8CE20E94C5010F90EA
S11303400F900F900F9002C088248A9489827A8239
S11303508AE0FE013196D70101900D928A95E1F76A
S1130360C7012A960FB6F894DEBF0FBECDBFDF914A
S1130370CF911F910F91FF90EF90DF90CF90BF909E
S1130380AF909F908F907F9008951F93CF93DF93AA
S1130390182FD62FC42FC49800C000C0000085E0D9
S11303A00E94CC0200C000C00000812F0E94CC0239
S11303B000C000C000008D2F0E94CC0200C000C00D
S11303C000008C2F0E94CC0200C000C00000C49A20
S11303D0DF91CF911F910895CF93C82FC49800C087
S11303E000C0000083E00E94CC0200C000C00000F6
S11303F08C2F0E94CC0200C000C000008FEF0E942E
S1130400CC0200C000C00000C49A90E0CF910895CF
S1130410CF93DF93D82FC62FC49800C000C000002C
S113042082E00E94CC0200C000C000008D2F0E9418
S1130430CC0200C000C000008C2F0E94CC0200C07F
S113044000C00000C49ADF91CF910895C49880EC55
S11304500E94CC02C49A08950E94C3020E94C8005C
S11304600E9426020895C49887E80E94CC02C49A88
S1130470089585B7806885BF80B7806280BFE091AA
S11304800601F09107018EEA8083E0910601F09164
S1130490070181EA8083E0910601F09107018AED6A
S11304A08083E0910601F091070182E18083E0916D
S11304B00601F091070188EC8083E0910601F09138
S11304C0070188EA8083E0910601F09107018FE338
S11304D08083E0910601F091070185ED8083E0912E
S11304E00601F091070180E88083E0910601F09114
S11304F0070181E88083E0910601F091070180E51E
S11305008083E0910601F091070189ED8083E091F9
S11305100601F091070181E28083E0910601F091E8
S1130520070180E28083E0910601F091070182E0F7
S11305308083E0910601F09107018BED8083E091C7
S11305400601F091070180E38083E0910601F091B8
S113055007018DEA8083E0910601F0910701108282
S1130560E0910601F091070184EA8083E09106019D
S1130570F091070186EA8083E0910601F09107017A
S11305808FEA80830895BE9887B3806B87BBC49A33
S11305908DB181658DB908958FB9779BFECF8FB1E9
S11305A0089585B7806885BF80B7806280BF08954D
S11305B05F9BFECF8CB108955D9BFECF8CB90895EF
S11305C010BC8FE189B988E18AB98EE880BD68EDF5
S11305D072E08CED92E00E94EE0208950F931F9357
S11305E0CF93DF93EC018B01009731F46115710512
S11305F019F480E090E038C06EE070E081E090E0B3
S11306000E942605FC010097A1F380E8838301156D
S1130610110571F01387028781E883838091390182
S113062090913A01892B21F4F0933A01E093390136
S11306302097C9F0D187C0878381826083838091AA
S11306403B0190913C01892B71F4F0933C01E093C0
S11306503B0180913D0190913E01892B21F4F0935F
S11306603E01E0933D01CF01DF91CF911F910F91A6
S11306700895A0E0B0E0EFE3F3E00C942607FE0158
S1130680359661917191AF0180913B0190913C014C
S11306900E945403E2E00C94420760913B01709184
S11306A03C010E9486060895ACE0B0E0EAE5F3E080
S11306B00C9416077C016B018A01FC0117821682D7
S11306C0838181FFBDC1CE0101964C01F701938165
S11306D0F60193FD859193FF81916F01882309F4BD
S11306E0ABC1853239F493FD859193FF81916F01FC
S11306F0853229F4B70190E00E948606E7CF512C99
S1130700312C20E02032A0F48B3269F030F48032B6
S113071059F0833269F420612CC08D3239F0803372
S113072039F4216026C02260246023C0286021C0DF
S113073027FD27C030ED380F3A3078F426FF06C085
S1130740FAE05F9E300D1124532E13C08AE0389EC8
S1130750300D1124332E20620CC08E3221F426FD7C
S11307606BC1206406C08C3611F4206802C0883640
S113077041F4F60193FD859193FF81916F018111FD
S1130780C1CF982F9F7D9554933028F40C5F1F4F51
S1130790FFE3F9830DC0833631F0833771F083357D
S11307A009F05BC022C0F801808189830E5F1F4F6E
S11307B044244394512C540115C03801F2E06F0EC7
S11307C0711CF801A080B18026FF03C0652D70E084
S11307D002C06FEF7FEFC5012C870E947B062C01BE
S11307E083012C852F77222E17C03801F2E06F0E7B
S11307F0711CF801A080B18026FF03C0652D70E054
S113080002C06FEF7FEFC5012C870E9469062C019F
S11308102C852068222E830123FC1BC0832D90E0AD
S113082048165906B0F4B70180E290E00E948606AB
S11308303A94F4CFF50127FC859127FE81915F015D
S1130840B70190E00E94860631103A94F1E04F1A05
S113085051084114510471F7E5C0843611F089360A
S113086039F5F80127FF07C0608171818281938186
S11308700C5F1F4F08C060817181882777FD8095C8
S1130880982F0E5F1F4F2F76B22E97FF09C09095B9
S11308908095709561957F4F8F4F9F4F2068B22E42
S11308A02AE030E0A4010E94B806A82EA81844C08B
S11308B0853729F42F7EB22E2AE030E025C0F22FAE
S11308C0F97FBF2E8F36C1F018F4883579F0B4C0A3
S11308D0803719F0883721F0AFC02F2F2061B22E56
S11308E0B4FE0DC08B2D8460B82E09C024FF0AC04D
S11308F09F2F9660B92E06C028E030E005C020E1A5
S113090030E002C020E132E0F801B7FE07C06081A8
S11309107181828193810C5F1F4F06C06081718158
S113092080E090E00E5F1F4FA4010E94B806A82E3D
S1130930A818FB2DFF77BF2EB6FE0BC02B2D2E7FE4
S1130940A51450F4B4FE0AC0B2FC08C02B2D2E7EB0
S113095005C07A2C2B2D03C07A2C01C0752C24FFE2
S11309600DC0FE01EA0DF11D8081803311F4297E52
S113097009C022FF06C07394739404C0822F867842
S113098009F0739423FD13C020FF06C05A2C73147E
S113099018F4530C5718732C731468F4B70180E2DD
S11309A090E02C870E94860673942C85F5CF7314EF
S11309B010F4371801C0312C24FF12C0B70180E3B2
S11309C090E02C870E9486062C8522FF17C021FF09
S11309D003C088E590E002C088E790E0B7010CC04E
S11309E0822F867859F021FD02C080E201C08BE29B
S11309F027FD8DE2B70190E00E948606A51438F425
S1130A00B70180E390E00E9486065A94F7CFAA9437
S1130A10F401EA0DF11D8081B70190E00E94860681
S1130A20A110F5CF332009F451CEB70180E290E054
S1130A300E9486063A94F6CFF7018681978102C018
S1130A408FEF9FEF2C96E2E10C9432070F931F93E4
S1130A50CF93DF93869F8001879F100D969F100D83
S1130A601124C8010E944205EC01009729F0A80155
S1130A7060E070E00E947406CE01DF91CF911F9177
S1130A800F910895CF93DF938230910510F482E0A3
S1130A9090E0E0914101F091420120E030E0A0E0DB
S1130AA0B0E0309739F14081518148175907B8F0C7
S1130AB04817590771F482819381109729F013968E
S1130AC09C938E9312972CC0909342018093410182
S1130AD027C02115310531F04217530718F0A90139
S1130AE0DB0101C0EF019A01BD01DF010280F38146
S1130AF0E02DD7CF21153105F9F0281B390B24300F
S1130B00310580F48A819B816115710521F0FB0117
S1130B109383828304C09093420180934101FE0138
S1130B20329644C0FE01E20FF31F81939193225049
S1130B303109398328833AC020913F013091400123
S1130B40232B41F4209102013091030130934001A1
S1130B5020933F01209100013091010121153105BD
S1130B6041F42DB73EB74091040150910501241B77
S1130B70350BE0913F01F0914001E217F307A0F437
S1130B802E1B3F0B2817390778F0AC014E5F5F4FDF
S1130B902417350748F04E0F5F1F509340014093D0
S1130BA03F018193919302C0E0E0F0E0CF01DF9137
S1130BB0CF910895CF93DF93009709F487C0FC0188
S1130BC0329713821282C0914101D0914201209741
S1130BD081F420813181280F391F80913F01909148
S1130BE040018217930779F5F0934001E0933F01A8
S1130BF06DC0DE0120E030E0AE17BF0750F412965E
S1130C004D915C9113979D014115510509F1DA014C
S1130C10F3CFB383A28340815181840F951F8A1738
S1130C209B0771F48D919C911197840F951F0296E7
S1130C309183808312968D919C91139793838283E1
S1130C402115310529F4F0934201E09341013EC09E
S1130C50D9011396FC93EE9312974D915D91A40FD5
S1130C60B51FEA17FB0779F480819181840F951FE2
S1130C700296D90111969C938E9382819381139647
S1130C809C938E931297E0E0F0E08A819B81009719
S1130C9019F0FE01EC01F9CFCE01029628813981C9
S1130CA0820F931F20913F0130914001281739078B
S1130CB069F4309729F4109242011092410102C064
S1130CC013821282D0934001C0933F01DF91CF91F0
S1130CD00895FC010590615070400110D8F780958B
S1130CE090958E0F9F1F0895DC0101C06D934150B4
S1130CF05040E0F70895FC016150704001900110EC
S1130D00D8F7809590958E0F9F1F08950F931F938A
S1130D10CF93DF93182F092FEB018B8181FD03C043
S1130D208FEF9FEF20C082FF10C04E815F812C8126
S1130D303D81421753077CF4E881F9819F012F5FBD
S1130D403F4F39832883108306C0E885F985812FB6
S1130D500995892B29F72E813F812F5F3F4F3F83D0
S1130D602E83812F902FDF91CF911F910F910895A2
S1130D70FA01AA27283051F1203181F1E8946F93C8
S1130D806E7F6E5F7F4F8F4F9F4FAF4FB1E03ED06E
S1130D90B4E03CD0670F781F891F9A1FA11D680F0C
S1130DA0791F8A1F911DA11D6A0F711D811D911D3F
S1130DB0A11D20D009F468943F912AE0269F1124B4
S1130DC03019305D3193DEF6CF010895462F477018
S1130DD0405D4193B3E00FD0C9F7F6CF462F4F7073
S1130DE0405D4A3318F0495D31FD4052419302D0D1
S1130DF0A9F7EACFB4E0A695979587957795679577
S1130E00BA95C9F700976105710508959B01AC0176
S1130E100A2E06945795479537952795BA95C9F79D
S1130E20620F731F841F951FA01D08952F923F9278
S1130E304F925F926F927F928F929F92AF92BF92E6
S1130E40CF92DF92EF92FF920F931F93CF93DF9392
S1130E50CDB7DEB7CA1BDB0B0FB6F894DEBF0FBEEF
S1130E60CDBF09942A88398848885F846E847D843C
S1130E708C849B84AA84B984C884DF80EE80FD803E
S1130E800C811B81AA81B981CE0FD11D0FB6F894B4
S1110E90DEBF0FBECDBFED010895F894FFCF75
S1130E9E0000430120000010683D20002569002554
S1130EAE69200A0061626300732049443A2025696F
S1130EBE0A00722049443A2025690A00494E5445D5
S10B0ECE5252555054454400F2
S9030000FC
