S00F00004279676765726E2E7372656347
S11300000C9462130C947F130C947F130C947F1341
S11300100C947F130C947F130C947F130C947F1314
S11300200C947F130C947F130C947F130C947F1304
S11300300C947F130C947F130C947F130C947F13F4
S11300400C947F130C947F130C947F130C947F13E4
S11300500C947F130C947F130C947F130C947F13D4
S11300600C947F130C947F130C947F130C947F13C4
S11300701FFFFFFFFFFFFFF81FFFFFFFFFFFFFF85A
S11300801FFFFFFFFFFFFFF81FFFFFFFFFFFFFF84A
S11300901FFFFFFFFFFFFFF81FFFFFFFFFFFFFF83A
S11300A01FFFFFFFFFFFFFF81FFFFFFFFFFFFFF82A
S11300B01FFFFFFFFFFFFFF81FFFFFFFFFFFFFF81A
S11300C01FFFFFFFFFFFFFF81FFFFFFFFFFFFFF80A
S11300D01FFFFFFFFFFFFFF81FFFFFFFFFFFFFF8FA
S11300E01FFFFFFFFFFFFFF81FFFFFFFFFFFFFF8EA
S11300F01FFFFFFFFFFFFFF81FFFFFFFFFFFFFF8DA
S11301001FFFFFFFFFFFFFF81FFFFFFFFFFFFFF8C9
S11301101FFFFFFFFFFFFFF81FFFFFFFFFFFFFF8B9
S11301201FC1FFFFFFFFFFF81FDC7FFFFFFFFFF88A
S11301301F9F9FFFFFFFFFF81FBFEFFFFFFFFFF8A9
S11301401FBFEFFFFFFFFFF81FBFEFFFFFFFFFF829
S11301501F3FDFFFFFFFFFF81F7FDFFFFFFFFFF8F9
S11301601F7FDFFFFFFFFFF81F7FBFFFFFFFFFF8C9
S11301701F7FBFFFFFFFFFF81F7FBFFFFFFFFFF8D9
S11301801F7FBFFFFFFFFFF81F3FBFFFFFFFFFF809
S11301901F3F3FFFFFFFFFF81FBF7FFFFFFCBFF8BC
S11301A01FBF7FFFFFFA1FF81FBF3FFFFFF29FF83B
S11301B01FBFDFFFFFF59FF81F9FDFFFFFE5BFF8BD
S11301C01FC01FFFFFEBBFF81FFF8C7FFFD7BFF8D7
S11301D01FFFE3BFFF873FF81FFFDC38FF8F7FF867
S11301E01FFFD3107F1E7FF81FFFCF007F3EFFF855
S11301F01FFFFF87023CFFF81FFFFF9F3C7DFFF8B6
S11302001FFFFFFF7EFBFFF81FFFFFFEFFF3FFF85A
S11302101FFFFFFEFFF7FFF81FFFFFFDFFF3FFF8CF
S11302201FFFFFFDFFFBFFF81FFFFFFC7FF9FFF837
S11302301FFFFFF87FFDFFF81FFFFFF87FFDFFF8AA
S11302401FFFFFF9FFFCFFF81FFFFFF3FFFCFFF8A0
S11302501FFFFFF7FFFDFFF81FFFFFF7FFFDFFF88C
S11302601F3FFFF7FFF9FFF81F3FFFF0FFE5FFF81F
S11302701F1FFFF0F00DFFF81F0FFFF0FFFDFFF849
S11302801E0FFFF3FFFDFFF81E07FFF7FFFDFFF84A
S11302901E07FFF7FFFDFFF81E07FFF7FFF9FFF842
S11302A01E03FFF7FFFBFFF81AFBFFF7FFFBFFF846
S11302B018FBF817FFF3FFF818FDC7E3FFF7FFF883
S11302C018FD9FFDFFE7FFF81C7C7FFFFFEFFFF8A1
S11302D01C7CFFFFFFDFFFF81C7CFFFFFE9FFFF885
S11302E01E3EFFFFBEBFFFF81E3EFFFFBE7FFFF8AE
S11302F01F3EFFFFBF7FFFF81F1EFFFFBF7FFFF8FA
S11303001F9FFFFFBF7FFFF81F8FFFFFBF7FFFF817
S11303101FC7FFFFBF7FFFF81FE7FFFFBF7FFFF887
S11303201FEFFFFFBF3FFFF81FEFFFFC5F7FFFF8EA
S11303301FEFFFF81F7FFFF81FE7FFF80F7FFFF89D
S11303401FF7FFF82F7FFFF81FF7FFFC277FFFF849
S11303501FF7FFFE707FFFF81FFBFF9FF0FFFFF802
S11303601FFBFF0FF7FFFFF81FFDFF0FEFFFFFF865
S11303701FFEFF0FCFFFFFF81FFF3FFF9FFFFFF898
S11303801FFF80073FFFFFF81FFFE070FFFFFFF82C
S11303901FFFFFF9FFFFFFF81FFFFFFFFFFFFFF83D
S11303A01FFFFFFFFFFFFFF81FFFFFFFFFFFFFF827
S11303B01FFFFFFFFFFFFFF81FFFFFFFFFFFFFF817
S11303C01FFFFFFFFFFFFFF81FFFFFFFFFFFFFF807
S11303D01FFFFFFFFFFFFFF81FFFFFFFFFFFFFF8F7
S11303E01FFFFFFFFFFFFFF81FFFFFFFFFFFFFF8E7
S11303F01FFFFFFFFFFFFFF81FFFFFFFFFFFFFF8D7
S11304001FFFFFFFFFFFFFF81FFFFFFFFFFFFFF8C6
S11304101FFFFFFFFFFFFFF81FFFFFFFFFFFFFF8B6
S11304201FFFFFFFFFFFFFF81FFFFFFFFFFFFFF8A6
S11304301FFFFFFFFFFFFFF81FFFFFFFFFFFFFF896
S11304401FFFFFFFFFFFFFF81FFFFFFFFFFFFFF886
S11304501FFFFFFFFFFFFFF81FFFFFFFFFFFFFF876
S11304601FFFFFFFFFFFFFF81FFFFFFFFFFFFFF866
S11304701FFFFFFFFFFFFFF81FFFFFFFFFFFFFF856
S11304801FFFFFFFFFFFFFF81FFFFFFFFFFFFFF846
S11304901FFFFFFFFFFFFFF81FFFFFFFFFFFFFF836
S11304A01FFFFFFFFFFFFFF81FFFFFFFFFFFFFF826
S11304B01FFFFFFFFFFFFFF81FFFFFFFFFFFFFF816
S11304C01FFFFFFFFFFFFFF81FFFFFFFFFFFFFF806
S11304D01FFFFFFFFFFFFFF81FFFFFFFFFFFFFF8F6
S11304E01FFFFFFFFFFFFFF81FFFFFFFFFFFFFF8E6
S11304F01FFFFFFFFFFFFFF81FFFFFFFFFFFFFF8D6
S11305001FFFFFFFFFFFFFF81FFFFFFFFFFFFFF8C5
S11305101FFFFFFFFFFFFFF81FFFFFFFFFFFFFF8B5
S11305201FFFFFFFFFFFFFF81FFFFFFFFFFFFFF8A5
S11305301FFFFFFFFFFFFFF81F007FFFFFFFFFF814
S11305401EFF7FFFFFFFFFF81EFF7FFFFFFFFFF887
S11305501EFEFFFFFFFFFFF81EFEFFFFFFFFFFF879
S11305601EFEFFFFFFFFFFF81EFEFFFFFFFFFFF869
S11305701EFEFFFFFFFFFFF81EFEFFFFFFFFFFF859
S11305801EFEFFFFFFFFFFF81EFEFFFFFFFFFFF849
S11305901EFEFFFFFFC3FFF81E7EFFFFFFC5FFF82F
S11305A01F7EFFFFFFADFFF81F7EFFFFFF9DFFF8DB
S11305B01F7EFFFFFF1DFFF81F3F3FFFFF39FFF8BE
S11305C01FBF9FFFFE3BFFF81FBC1FFFFE7BFFF812
S11305D01FC39C7FFC7BFFF81FDF82B8FC73FFF80E
S11305E01FFFC410FCF7FFF81FFFD3027CF7FFF8CE
S11305F01FFFEF8601F7FFF81FFFFFDE79F7FFF813
S11306001FFFFFFEF9F7FFF81FFFFFFCFBF7FFF8E2
S11306101FFFFFFDFBEFFFF81FFFFFF9FFE7FFF8E8
S11306201FFFFFFBFFF3FFF81FFFFFF8FFF9FFF8C1
S11306301FFFFFF07FFDFFF81FFFFFF0FFFCFFF837
S11306401FFFFFF1FFFEFFF81FFFFFF7FFFEFFF89C
S11306501FFFFFF7FFFCFFF81FFFFFF7FFFDFFF889
S11306601FFFFFF7FFF1FFF81FFFFFF1FFC5FFF8C2
S11306701FFFFFF0FC1DFFF81CFFFFE1FFFDFFF86B
S11306801C7FFFE3FFFDFFF81C3FFFF7FFFDFFF8B2
S11306901C3FFFF7FFF9FFF81C1FFFF7FFFBFFF8F4
S11306A01C0FFFF7FFFBFFF81C0FFFF7FFF3FFF82A
S11306B01DE7FFF3FFF7FFF811F7FFFBFFF7FFF864
S11306C010F7F003FFEFFFF810FBCFF9FFEFFFF88F
S11306D018FBBFFFFFDFFFF8187B7FFFFF9FFFF8CA
S11306E01B78FFFFFF9FFFF81D3DFFFFDF9FFFF813
S11306F01DBDFFFFDF9FFFF81C9DFFFFDFDFFFF83D
S11307001EDDFFFFCFCFFFF81F6FFFFFEFCFFFF816
S11307101F77FFFFEFCFFFF81FB7FFFFEFCFFFF803
S11307201FD7FFFFE7EFFFF81FE7FFFFF7EFFFF823
S11307301FE7FFFEF3E7FFF81FF7FFFC7BE7FFF877
S11307401FF7FFF839E7FFF81FF7FFF838CFFFF876
S11307501FF7FFF8325FFFF81FF3FFFC771FFFF866
S11307601FFBFFFFF7BFFFF81FF9FF8FEFFFFFF835
S11307701FFDFF07EFFFFFF81FFCFF07DFFFFFF878
S11307801FFE7F8FBFFFFFF81FFF1FE73FFFFFF82C
S11307901FFFC0107FFFFFF81FFFFFF9FFFFFFF8E7
S11307A01FFFFFFFFFFFFFF81FFFFFFFFFFFFFF823
S11307B01FFFFFFFFFFFFFF81FFFFFFFFFFFFFF813
S11307C01FFFFFFFFFFFFFF81FFFFFFFFFFFFFF803
S11307D01FFFFFFFFFFFFFF81FFFFFFFFFFFFFF8F3
S11307E01FFFFFFFFFFFFFF81FFFFFFFFFFFFFF8E3
S11307F01FFFFFFFFFFFFFF81FFFFFFFFFFFFFF8D3
S11308001FFFFFFFFFFFFFF81FFFFFFFFFFFFFF8C2
S11308101FFFFFFFFFFFFFF81FFFFFFFFFFFFFF8B2
S11308201FFFFFFFFFFFFFF81FFFFFFFFFFFFFF8A2
S11308301FFFFFFFFFFFFFF81FFFFFFFFFFFFFF892
S11308401FFFFFFFFFFFFFF81FFFFFFFFFFFFFF882
S11308501FFFFFFFFFFFFFF81FFFFFFFFFFFFFF872
S11308601FFFFFFFFFFFFFF81FFFFFFFFFFFFFF862
S11308701FFFFFFFFFFFFFF81FFFFFFFFFFFFFF852
S11308801FFFFFFFFFFFFFF81FFFFFFFFFFFFFF842
S11308901FFFFFFFFFFFFFF81FFFFFFFFFFFFFF832
S11308A01FFFFFFFFFFFFFF81FFFFFFFFFFFFFF822
S11308B01FFFFFFFFFFFFFF81FFFFFFFFFFFFFF812
S11308C01FFFFFFFFFFFFFF81FFFFFFFFFFFFFF802
S11308D01FFFFFFFFFFFFFF81FFFFFFFFFFFFFF8F2
S11308E01FFFFFFFFFFFFFF81FFFFFFFFFFFFFF8E2
S11308F01FFFFFFFFFFFFFF81FFFFFFFFFFFFFF8D2
S11309001FFFFFFFFFFFFFF81FFFFFFFFFFFFFF8C1
S11309101FFFFFFFFFFFFFF81FFFFFFFFFFFFFF8B1
S11309201FFFFFFFFFFFFFF81FFFFFFFFFFFFFF8A1
S11309301FFFFFFFFFFFFFF81FFFFFFFFFFFFFF891
S11309401FFFFFFFFFFFFFF81FFFFFFFFFFFFFF881
S11309501FFFFFFFFFFFFFF81FFFFFFFFFFFFFF871
S11309601FFFFFFFFFFFFFF81FFFFFFFFFFFFFF861
S11309701FFFFFFFFFFFFFF81FFFFFFFFFFFFFF851
S11309801FFFFFFFFFFFFFF81FFFFFFFFFFFFFF841
S11309901FFFFFFFFFFFFFF81FFFFFFFFFFFFFF831
S11309A01FFFFFFFFFFFFFF81FFFFFFFFF8FFFF891
S11309B01FFFFFFFFF2FFFF81FFFFFFFFE6FFFF872
S11309C003FFFFFFFCCFFFF80BFFFFFFF9DFFFF88A
S11309D01DFFFFFFF3BFFFF81DFFFFFFE7BFFFF899
S11309E01EFFFFFFC77FFFF81EFFFFFFCF7FFFF84B
S11309F01F7FFFFF8E7FFFF81F7FFFFF9EFFFFF823
S1130A001FBFFFFF9EFFFFF81FDFF79C180FFFF8C3
S1130A101FC9E301B3E3FFF81FE0C027BFF9FFF8E4
S1130A201FFE806FBFFDFFF81FFD08EFBFFEFFF83C
S1130A300FFA5CEFFFFEFFF813F31FEFFFFEFFF862
S1130A4019F7BFE1FFFEFFF81E77FFE1FFFEFFF895
S1130A501F2FFFE3FFFCFFF81FCFFFE3FFFDFFF8AD
S1130A601FFFFFE7FFF8FFF81FFFFFEFFFFEFFF890
S1130A701FFFFFEFFFFEFFF81FFFFFEFFFFEFFF872
S1130A801FFFFFE7FFFEFFF81FFFFFF07FFEFFF8E9
S1130A901FFFFFF0FFFEFFF81FFFFFF1FFFEFFF84F
S1130AA01FFFFFFBFFFF7FF81FFFFFFBFFFF7FF828
S1130AB01FFFFFF9FFFEFFF81FFFFFFDFFFEFFF81A
S1130AC01F8FFFFDFFFEFFF81F83FFFEFFE6FFF809
S1130AD01FC1FFF83FF07FF81FC0FFC3FFFC3FF8C2
S1130AE01FC07F1FFFFE1FF81FE33E7FFFFF1FF89D
S1130AF01FEFBCFFFEFF8FF81FEFDDFFFF7FC7F87E
S1130B001FF7CBFFFF7FE7F81F07E3FFFF3FF3F873
S1130B101F03F7FFFFBFFBF81F81F7FFFFDFF9F8A3
S1130B201FC0F3FFFFCFF9F81FCEFBFFFFE7FDF86F
S1130B301FF73FFFFFF3FDF81FFB9FFFFC78FFF853
S1130B401FFCCFFFF83A7EF81FFE27FFF83B1EF884
S1130B501FFFCFFFF83BCDF81FFFEFFFFC33F1F889
S1130B601FFFEFFFFFF7FDF81FFFF7FFFFF7FFF889
S1130B701FFFF7FFFFF7FFF81FFFF3FFCFE7FFF8B3
S1130B801FFFFBFF87EFFFF81FFFF9FF87EFFFF859
S1130B901FFFFCFFCFDFFFF81FFFFE7FFFBFFFF843
S1130BA01FFFFF1FE33FFFF81FFFFFC018FFFFF801
S1130BB01FFFFFFFFFFFFFF81FFFFFFFFFFFFFF80F
S1130BC01FFFFFFFFFFFFFF81FFFFFFFFFFFFFF8FF
S1130BD01FFFFFFFFFFFFFF81FFFFFFFFFFFFFF8EF
S1130BE01FFFFFFFFFFFFFF81FFFFFFFFFFFFFF8DF
S1130BF01FFFFFFFFFFFFFF81FFFFFFFFFFFFFF8CF
S1130C001FFFFFFFFFFFFFF81FFFFFFFFFFFFFF8BE
S1130C101FFFFFFFFFFFFFF81FFFFFFFFFFFFFF8AE
S1130C201FFFFFFFFFFFFFF81FFFFFFFFFFFFFF89E
S1130C301FFFFFFFFFFFFFF81FFFFFFFFFFFFFF88E
S1130C401FFFFFFFFFFFFFF81FFFFFFFFFFFFFF87E
S1130C501FFFFFFFFFFFFFF81FFFFFFFFFFFFFF86E
S1130C601FFFFFFFFFFFFFF81FFFFFFFFFFFFFF85E
S1130C701FFFFFFFFFFFFFF81FFFFFFFFFFFFFF84E
S1130C801FFFFFFFFFFFFFF81FFFFFFFFFFFFFF83E
S1130C901FFFFFFFFFFFFFF81FFFFFFFFFFFFFF82E
S1130CA01FFFFFFFFFFFFFF81FFFFFFFFFFFFFF81E
S1130CB01FFFFFFFFFFFFFF81FFFFFFFFFFFFFF80E
S1130CC01FFFFFFFFFFFFFF81FFFFFFFFFFFFFF8FE
S1130CD01FFFFFFFFFFFFFF81FFFFFFFFFFFFFF8EE
S1130CE01FFFFFFFFFFFFFF81FFFFFFFFFFFFFF8DE
S1130CF01FFFFFFFFFFFFFF81FFFFFFFFFFFFFF8CE
S1130D001FFFFFFFFFFFFFF81FFFFFFFFFFFFFF8BD
S1130D101FFFFFFFFFFFFFF81FFFFFFFFFFFFFF8AD
S1130D201FFFFFFFFFFFFFF81FFFFFFFFFFFFFF89D
S1130D301FFFFFFFFFFFFFF81FFFFFFFFFFFFFF88D
S1130D401FFFFFFFFFFFFFF81FFFFFFFFFFFFFF87D
S1130D501FFFFFFFFFFFFFF81FFFFFFFFFFFFFF86D
S1130D601FFFFFFFFFFFFFF81FFFFFFFFFFFFFF85D
S1130D700003FFFFFFFFFFF807FFFFFFFFFFFFF880
S1130D800FF7FFFFFFFFFFF80FF7FFFFFFFFFFF86D
S1130D900FF7FFFFFFFFFFF80FF7FFFFFFFFFFF85D
S1130DA00FF7FFFFFFFFFFF80FF7FFFFFFFFFFF84D
S1130DB00FF7FFFFFFFFFFF80FF7FFFFFFFFFFF83D
S1130DC00FF7FFFFFFFC07F80FF7FFFFFFE1F7F84E
S1130DD00FF7FFFFFF8FF7F807F7FFFFFE3FC7F896
S1130DE007F7FFFFF8FE2FF817F7FFFFF3F8E7F810
S1130DF017F1FFFFF7F00FF81BFDF7FFE7C3FFF84C
S1130E001BF0C7DE070FFFF81BCC3B08FFE3FFF81E
S1130E101D3D8203FFF9FFF81C7E3067FFFDFFF8DC
S1130E201FFEF86FFFFEFFF81FFFF8EFFFFEFFF84D
S1130E301FFFFFCFFFFEFFF81FFFFFDFFFFEFFF8DE
S1130E401FFFFFDFFFFEFFF81FFFFFC1FFFEFFF8DC
S1130E501FFFFFC1FFFCFFF81FFFFFC3FFF9FFF8EF
S1130E601FFFFFE7FFF7FFF81FFFFFE7FFFEFFF895
S1130E701FFFFFEFFFFEFFF81FFFFFE7FFFEFFF876
S1130E801FFFFFF7FFFEFFF81FFFFFF07FFEFFF8D5
S1130E901FF9FFF0FFFEFFF81FF8FFF9FFFEFFF850
S1130EA01FF87FFBFFFF7FF81FF87FFBFFFF7FF832
S1130EB01FF83FFDFFFF7FF81FF81FFDFFFF7FF8BE
S1130EC01FF80FFCFFFEFFF81FC9EFFEFFF27FF8CB
S1130ED01FC1E7F83FF89FF81FC1F7C3FEFE4FF8A4
S1130EE01FC1F79FFF7F8FF81FE0FB7FFF7FC7F8CD
S1130EF01FEEF8FFFF7FE3F81FE679FFFFBFF3F86B
S1130F001FF779FFFF9FF9F81FFB3DFFFFDFF9F89B
S1130F101FF9BDFFFFEFFDF81FFD9DFFFFF7FDF873
S1130F201FFEDDFFFFF1FDF81FFE6FFFFFF8FEF867
S1130F301FFF27FFFFFA7EF81FFF87FFFC3B9EF889
S1130F401FFFCFFFF83BCEF81FFFEFFFF81BF2F8AF
S1130F501FFFEFFFF83BF8F81FFFEFFFFC3BFFF824
S1130F601FFFEFFFFF73FFF81FFFE7FFFFF7FFF817
S1130F701FFFF7FFFFF7FFF81FFFF7FFCFE7FFF8AB
S1130F801FFFFBFF87EFFFF81FFFF9FF87CFFFF875
S1130F901FFFFCFFCFDFFFF81FFFFE7FFF9FFFF85F
S1130FA01FFFFF1FE13FFFF81FFFFFC0187FFFF87F
S1130FB01FFFFFF07FFFFFF81FFFFFFFFFFFFFF89A
S1130FC01FFFFFFFFFFFFFF81FFFFFFFFFFFFFF8FB
S1130FD01FFFFFFFFFFFFFF81FFFFFFFFFFFFFF8EB
S1130FE01FFFFFFFFFFFFFF81FFFFFFFFFFFFFF8DB
S1130FF01FFFFFFFFFFFFFF81FFFFFFFFFFFFFF8CB
S11310001FFFFFFFFFFFFFF81FFFFFFFFFFFFFF8BA
S11310101FFFFFFFFFFFFFF81FFFFFFFFFFFFFF8AA
S11310201FFFFFFFFFFFFFF81FFFFFFFFFFFFFF89A
S11310301FFFFFFFFFFFFFF81FFFFFFFFFFFFFF88A
S11310401FFFFFFFFFFFFFF81FFFFFFFFFFFFFF87A
S11310501FFFFFFFFFFFFFF81FFFFFFFFFFFFFF86A
S11310601FFFFFFFFFFFFFF81FFFFFFFFFFFFFF85A
S11310701FFFFFFFFFFFFFF81FFFFFFFFFFFFFF84A
S11310801FFFFFFFFFFFFFF81FFFFFFFFFFFFFF83A
S11310901FFFFFFFFFFFFFF81FFFFFFFFFFFFFF82A
S11310A01FFFFFFFFFFFFFF81FFFFFFFFFFFFFF81A
S11310B01FFFFFFFFFFFFFF81FFFFFFFFFFFFFF80A
S11310C01FFFFFFFFFFFFFF81FFFFFFFFFFFFFF8FA
S11310D01FFFFFFFFFFFFFF81FFFFFFFFFFFFFF8EA
S11310E01FFFFFFFFFFFFFF81FFFFFFFFFFFFFF8DA
S11310F01FFFFFFFFFFFFFF81FFFFFFFFFFFFFF8CA
S11311001FFFFFFFFFFFFFF81FFFFFFFFFFFFFF8B9
S11311101FFFFFFFFFFFFFF81FFFFFFFFFFFFFF8A9
S11311201FF7FFFFFFFFFFF81F8DFFFFFFFFFFF813
S11311301C7DFFFFFFFFFFF819FDFFFFFFFFFFF816
S11311401FFDFFFFFFFFFFF81FFDFFFFFFFFFFF87D
S113115017FDFFFFFFFFFFF817F9FFFFFFFFFFF881
S113116017F9FFFFFFFFFFF817F9FFFFFFFFFFF875
S113117017FDFFFFFFFFFFF817FDFFFFFFFFFFF85D
S11311801BFDFFFFFFFFFFF81BFDFFFFFFFFFFF845
S11311901BFDFFFFFFFFFFF81BFDFFFFFFFFFFF835
S11311A01BFC3FFFFFFFFFF81BFEBCFFFFFFFFF828
S11311B01DFFB2FFFFFFFFF81DFC0E7FFFFFFFF8CE
S11311C01DF3B073FFFFFFF81ECFAE61FFFFFFF802
S11311D01E9F9E00F8007FF81E7FFF0CC3FF9FF840
S11311E01FFFFF1C2FFFE7F81FFFFFBCFFFFFBF8EB
S11311F01FFFFFFDFFFFFBF81FFFFFF9FF8003F850
S11312001FFFFFFBFFF9E7F81FFFFFFBFFFC77F869
S11312101FFFFFF7FFFE17F81FFFFFF7FFFF47F859
S11312201FFFFFF1FFFF77F81FFFFFF0FFFFBFF87D
S11312301FFFFFE0FFFFFFF81FFFFFE1FFFFBFF805
S11312401FFFFFE7FFFF3FF81FFFFFEFFFFE7FF8E1
S11312501FFFFFE7FFF8FFF81FFFFFE7FFFEFFF8A0
S11312601FFFFFF7FFFEFFF81FFFFFF7FFFEFFF86A
S11312701FFFFBF0FFFCFFF81FFFF9F07FFDFFF8F5
S11312801FFFF1F0FFFDFFF81FFFF1FBFFFDFFF86B
S11312901FFFF0FBFFFDFFF81FFFE0FDFFFDFFF860
S11312A01FFFE0FDFFFDFFF81FFFCCFEFFF01FF85E
S11312B01FFFCEFE7FFFC7F81FFF8EFF3FFFF3F82F
S11312C01FFF8EF007FFF9F81FFF8EC7FAFFFDF826
S11312D01FFF8E1FFF7FFEF81FFF8E7FFF7FE2F848
S11312E01FFF8E7FFFBF00F81FFF8EFFFFC001F8B6
S11312F01FFF8EFFFFF0FFF81FFF8EFFFFFBFFF8BD
S11313001FFFCEFFFFFBFFF81FFFCEFFFFFBFFF821
S11313101FFFCFFFFFFBFFF81FFFC7FFFFFBFFF817
S11313201FFFE7FFFE39FFF81FFFE7FFFC19FFF877
S11313301FFFF7FFFC19FFF81FFFF7FFFC09FFF879
S11313401FFFF3FFFC1BFFF81FFFFBFFFE1BFFF853
S11313501FFFFBFFFFFBFFF81FFFFDFFFFFBFFF875
S11313601FFFFDFFC3F7FFF81FFFFEFFC3F7FFF8E2
S11313701FFFFE7FC3EFFFF81FFFFF3FEFEFFFF8F4
S11313801FFFFF9FF9DFFFF81FFFFFE0003FFFF89B
S11313901FFFFFF83E7FFFF81FFFFFFFFFFFFFF86F
S11313A01FFFFFFFFFFFFFF81FFFFFFFFFFFFFF817
S11313B01FFFFFFFFFFFFFF81FFFFFFFFFFFFFF807
S11313C01FFFFFFFFFFFFFF81FFFFFFFFFFFFFF8F7
S11313D01FFFFFFFFFFFFFF81FFFFFFFFFFFFFF8E7
S11313E01FFFFFFFFFFFFFF81FFFFFFFFFFFFFF8D7
S11313F01FFFFFFFFFFFFFF81FFFFFFFFFFFFFF8C7
S11314001FFFFFFFFFFFFFF81FFFFFFFFFFFFFF8B6
S11314101FFFFFFFFFFFFFF81FFFFFFFFFFFFFF8A6
S11314201FFFFFFFFFFFFFF81FFFFFFFFFFFFFF896
S11314301FFFFFFFFFFFFFF81FFFFFFFFFFFFFF886
S11314401FFFFFFFFFFFFFF81FFFFFFFFFFFFFF876
S11314501FFFFFFFFFFFFFF81FFFFFFFFFFFFFF866
S11314601FFFFFFFFFFFFFF81FFFFFFFFFFFFFF856
S11314701FFFFFFFFFFFFFF81FFFFFFFFFFFFFF846
S11314801FFFFFFFFFFFFFF81FFFFFFFFFFFFFF836
S11314901FFFFFFFFFFFFFF81FFFFFFFFFFFFFF826
S11314A01FFFFFFFFFFFFFF81FFFFFFFFFFFFFF816
S11314B01FFFFFFFFFFFFFF81FFFFFFFFFFFFFF806
S11314C01FFFFFFFFFFFFFF81FFFFFFFFFFFFFF8F6
S11314D01FFFFFFFFFFFFFF81FFFFFFFFFFFFFF8E6
S11314E01FFFFFFFFFFFFFF81FFFFFFFFFFFFFF8D6
S11314F01FFFFFFFFFFFFFF81FFFFFFFFFFFFFF8C6
S11315001FFFFFFFFFFFFFF81F003FFFFFFFFFF874
S11315101F7FBFFFFFFFFFF81EFFBFFFFFFFFFF8A6
S11315201EFF7FFFFFFFFFF81EFF7FFFFFFFFFF897
S11315301EFF7FFFFFFFFFF81EFF7FFFFFFFFFF887
S11315401EFF7FFFFFFFFFF81EFF7FFFFFFFFFF877
S11315501EFFFFFFFFFFFFF81EFEFFFFFFFFFFF868
S11315601EFEFFFFFFFFFFF81EFEFFFFFFFFFFF859
S11315701EFEFFFFFFFFFFF81EFEFFFFFFFFFFF849
S11315801EFE0FFFFFFFFFF81EFFEE3FFFFFFFF8F9
S11315901F7F01DFFFFFFFF81F78C61EFFFFFFF864
S11315A01F67E9987FFFFFF81F4FE7803FFFFFF8B1
S11315B01FBFEFC13FFFFFF81FFFFFC70001FFF888
S11315C01FFFFFFF9E703FF81FFFFFFF3EFC1FF849
S11315D01FFFFFFF7FFF87F81FFFFFFEFFF7C3F822
S11315E01FFFFFFCFFFBF1F81FFFFFFDFFFDF9F8F4
S11315F01FFFFFFDFFFEFDF81FFFFFFBFFFE7EF850
S11316001FFFFFF8FFFF1EF81FFFFFF87FFF6EF8B4
S11316101FFFFFF03FFF72F81FFFFFF03FFF79F855
S11316201FFFFFF7FFFE7FF81FFFFFF7FFFCFFF828
S11316301FFFFFF7FFF1FFF81FFFFFF7FF05FFF89C
S11316401FFFFFF7FFFDFFF81FFFFFF7FFFFFFF886
S11316501FFFFFF0FFFBFFF81FFFFFF07FFB0FF8FA
S11316601FFFF3F07FF8F3F81FFFE3F3FFE7FBF846
S11316701FFFE2F7FFCFFBF81FFFC0FBFFBFF7F828
S11316801FFFC0FBFFFFE7F81FFF80FBFFFFC3F84E
S11316901FFF80FDFFFF97F81FFFA0FDFFFF2FF83E
S11316A01FFF71E0FFFF5FF81FFF791C3FFEBFF8CB
S11316B01FFF78FFBFFC7FF81FFF79FFFFF0FFF8E3
S11316C01FFF7BFFFFE3FFF81FFF73FFFF8FFFF890
S11316D01FFF77FFFF3FFFF81FFF77FFFF7FFFF834
S11316E01FFF77FFFF7FFFF81FFF7FFFFF7FFFF8DC
S11316F01FFF7FFFFFBFFFF81FFF7FFFFFBFFFF844
S11317001FFF7FFFFFBFFFF81FFF7FFFCFBFFFF863
S11317101FFF7FFF87BFFFF81FFF7FFF03BFFFF897
S11317201FFFFFFF03BFFFF81FFF7FFF07BFFFF887
S11317301FFF7FFF8FBFFFF81FFF7FFFFFBFFFF873
S11317401FFF7FFFFFBFFFF81FFFBFFFFF7FFFF8F3
S11317501FFFBFFCFF7FFFF81FFF9FF87F7FFFF88D
S11317601FFFDFF07EFFFFF81FFFEFF9FEFFFFF81A
S11317701FFFF3FFFDFFFFF81FFFF8FE79FFFFF8DF
S11317801FFFFF0187FFFFF81FFFFFFF8FFFFFF819
S11317901FFFFFFFFFFFFFF81FFFFFFFFFFFFFF823
S11317A01FFFFFFFFFFFFFF81FFFFFFFFFFFFFF813
S11317B01FFFFFFFFFFFFFF81FFFFFFFFFFFFFF803
S11317C01FFFFFFFFFFFFFF81FFFFFFFFFFFFFF8F3
S11317D01FFFFFFFFFFFFFF81FFFFFFFFFFFFFF8E3
S11317E01FFFFFFFFFFFFFF81FFFFFFFFFFFFFF8D3
S11317F01FFFFFFFFFFFFFF81FFFFFFFFFFFFFF8C3
S11318001FFFFFFFFFFFFFF81FFFFFFFFFFFFFF8B2
S11318101FFFFFFFFFFFFFF81FFFFFFFFFFFFFF8A2
S11318201FFFFFFFFFFFFFF81FFFFFFFFFFFFFF892
S11318301FFFFFFFFFFFFFF81FFFFFFFFFFFFFF882
S11318401FFFFFFFFFFFFFF81FFFFFFFFFFFFFF872
S11318501FFFFFFFFFFFFFF81FFFFFFFFFFFFFF862
S11318601FFFFFFFFFFFFFF81FFFFFFFFFFFFFF852
S11318701FFFFFFFFFFFFFF81FFFFFFFFFFFFFF842
S11318801FFFFFFFFFFFFFF81FFFFFFFFFFFFFF832
S11318901FFFFFFFFFFFFFF81FFFFFFFFFFFFFF822
S11318A01FFFFFFFFFFFFFF81FFFFFFFFFFFFFF812
S11318B01FFFFFFFFFFFFFF81FFFFFFFFFFFFFF802
S11318C01FFFFFFFFFFFFFF81FFFFFFFFFFFFFF8F2
S11318D01FFFFFFFFFFFFFF81FFFFFFFFFFFFFF8E2
S11318E01FFFFFFFFFFFFFF81FFFFFFFFFFFFFF8D2
S11318F01FFFFFFFFFFFFFF81FFFFFFFFFFFFFF8C2
S11319001FFFFFFFFFFFFFF81FFFFFFFFFFFFFF8B1
S11319101FC0FFFFFFFFFFF81F9F1FFFFFFFFFF820
S11319201FBFE7FFFFFFFFF81FBFEFFFFFFFFFF839
S11319301FBFEFFFFFFFFFF81FBFEFFFFFFFFFF821
S11319401FBFDFFFFFFFFFF81FBFDFFFFFFFFFF831
S11319501FBFDFFFFFFFFFF81F7FDFFFFFFFFFF861
S11319601F7FBFFFFFFFFFF81FFFBFFFFFFFFFF851
S11319701F7FBFFFFFFFFFF81FBFBFFFFFFFFFF881
S11319801FBFBFFFFFFFFFF81FBFBFFFFFFFFFF831
S11319901FBF8FFFFFFFFFF81FBFEFFFFFFFFFF821
S11319A01FD01FFFFFFFFFF81FCFDC3FFFFFFFF833
S11319B01FFFD3BFFFFFFFF81FFFDC1FFFFF03F86C
S11319C01FFFC79CFFF81DF81FFFFF80FFE0FDF815
S11319D01FFFFF807F87FBF81FFFFFC2631FE7F82D
S11319E01FFFFFCF0C7F9FF81FFFFFFF3DFF7FF816
S11319F01FFFFFFF7DFEFFF81FFFFFFEFDFDFFF849
S1131A001FFFFFFEFFFFFFF81FFFFFFDFFFDFFF8B5
S1131A101FFFFFFDFFFDFFF81FFFFFF87FFEFFF82C
S1131A201FFFFFF83FFEFFF81FFFFFF87FFEFFF8E0
S1131A301FFFFFF3FFFF7FF81FFFFFF7FFFF7FF894
S1131A401FFFFFF7FFFEFFF81FFFFFF7FFFEFFF882
S1131A501FFFFFF7FFFEFFF81FFFFFF7FF7DFFF8F3
S1131A601FFFFFF0FF81FFF81FFFF8F0FFFDFFF8F5
S1131A701FFFF0F1FFFDFFF81FFFF0F3FFFDFFF87C
S1131A801FFFE0F7FFFFFFF81FFFC0F7FFFBFFF8A2
S1131A901FFFD0F7FFFBFFF81FFFB8F7FFEBFFF8BE
S1131AA01FFFB8F3FFEBFFF81FFF7C00FFF3FFF805
S1131AB01FFF79FF7FF3FFF81FFF7BFFFBFBFFF89E
S1131AC01FFEFBFFFFF9FFF81FFEF7FFFBFDFFF80A
S1131AD01FFEF7FFFBFEFFF81FFDFFFFFBFEFFF8F5
S1131AE01FFDFFFFFBFF7FF81FFDFFFFFDFF7FF8DA
S1131AF01FFDFFFFFCFFFFF81FFDFFFFFE7F3FF808
S1131B001FFDFFFFFF3F7FF81FFDFFFFFF007FF872
S1131B101FFDFFFFFF60FFF81FFDFFFF8F7FFFF832
S1131B201FFDFFFF077FFFF81FFFFFFF037FFFF885
S1131B301FFEFFFF037FFFF81FFEFFFF077FFFF875
S1131B401FFEFFFF077FFFF81FFEFFFFCF7FFFF899
S1131B501FFF7FFFFF7FFFF81FFF3FE1FEFFFFF83E
S1131B601FFFBFE0FEFFFFF81FFFCFE1FDFFFFF8FF
S1131B701FFFE7FFFDFFFFF81FFFF1FFFBFFFFF86B
S1131B801FFFFE00E7FFFFF81FFFFFFE0FFFFFF838
S1131B901FFFFFFF7FFFFFF81FFFFFFFFFFFFFF89F
S1131BA01FFFFFFFFFFFFFF81FFFFFFFFFFFFFF80F
S1131BB01FFFFFFFFFFFFFF81FFFFFFFFFFFFFF8FF
S1131BC01FFFFFFFFFFFFFF81FFFFFFFFFFFFFF8EF
S1131BD01FFFFFFFFFFFFFF81FFFFFFFFFFFFFF8DF
S1131BE01FFFFFFFFFFFFFF81FFFFFFFFFFFFFF8CF
S1131BF01FFFFFFFFFFFFFF81FFFFFFFFFFFFFF8BF
S1131C001FFFFFFFFFFFFFF81FFFFFFFFFFFFFF8AE
S1131C101FFFFFFFFFFFFFF81FFFFFFFFFFFFFF89E
S1131C201FFFFFFFFFFFFFF81FFFFFFFFFFFFFF88E
S1131C301FFFFFFFFFFFFFF81FFFFFFFFFFFFFF87E
S1131C401FFFFFFFFFFFFFF81FFFFFFFFFFFFFF86E
S1131C501FFFFFFFFFFFFFF81FFFFFFFFFFFFFF85E
S1131C601FFFFFFFFFFFFFF81FFFFFFFFFFFFFF84E
S1131C70FFFFFFF00FFFFFFFFFFFFFE007FFFFFF86
S1131C80FFFFFF0000FFFFFFFFFFFC00003FFFFF1F
S1131C90FFFFF800001FFFFFFFFFF01FE00FFFFF33
S1131CA0FFFFC07FF003FFFFFFFF81FFF001FFFF95
S1131CB0FFFF83FFF001FFFFFFFF0FFFF800FFFFAF
S1131CC0FFFE1FFFF8087FFFFFFC3FFFF80C3FFFFC
S1131CD0FFF87FFFF80E1FFFFFF87FFFFC071FFFD1
S1131CE0FFF0FFFFFC070FFFFFE1FFFFFC0787FF8B
S1131CF0FFE3FFFFFC07C7FFFFC3FFFFFC07C3FFB2
S1131D00FFC7FFFFFE03E3FFFF8FFFFFFE03F1FFAB
S1131D10FF8FFFFFFE03F1FFFF1FFFFFFE03F8FF2E
S1131D20FF1FFFFFFE03F8FFFE3FFFFFFF03FC7FE3
S1131D30FE3FFFFFFF01FC7FFE7FFFFFFF01FE7FF1
S1131D40FC7FFFFFFF00FE3FFC7FFFFFFE007E3FA6
S1131D50FCFFFFFFFE007F3FF8FFFFFFFC003F1F7B
S1131D60F8FFFFFFFC001F1FF9FFFFFFF83C0F9F68
S1131D70F1FFFFFFF87F0F8FF1FFFFFFF0FF0F8FE1
S1131D80F3FFFFFFF0FF87CFF3FFFFFFF1FFC7CFA4
S1131D90E3FFFFFFE1E3C7C7E3FFFFFFE3C1E3C7DF
S1131DA0E7FFFFFFE3CCE3E7E7FFFFFFE39EE3E7A3
S1131DB0C7FFFFFFE3BE63E3C7FFFFFFE3BF73E3B8
S1131DC0CFFFFFFFE7BF73F3CFFFFFFFE7BF73F35F
S1131DD0CFFFFFFFE7BF73F3CFFFFFFFE7BF73F34F
S1131DE0CFFFFFFFE3BF73F39FFFFFFFE3BF73F179
S1131DF09FFFFFFFE39E73F99FFFFFFFE3DEE3F91D
S1131E009FFFFFFFE3C0E3F99FFFFFFFE1E1E3F979
S1131E109FFFFFFFF1FFE3F99FFFFFFFF1FFC7F90A
S1131E209FFFFFFFF0FFC7F91FFFFFFFF0FF87F8D9
S1131E301FFFFFFFF87F07F81FFFFFFFF81E0FF8D3
S1131E403FFFFFFFFC080FFC3FFFFFFFFC001FFCF0
S1131E503FFFFFFFFE001FFC3FFFFFFFFF003FFCB3
S1131E603FFFFFFFFF003FFC3FFFFFFFFFC03FFCC2
S1131E703FFFFFFFFFE03FFC3FFFFFFFFFE03FFCB2
S1131E803FFFFFFFFFE03FFC3FFFFFFFFFE03FFCA2
S1131E903FFFFFFFFFE03FFC3FFFFFFFFFE03FFC92
S1131EA01FFFFFFFFFE03FF81FFFFFFFFFE03FF8CA
S1131EB01FFFFFFFFFE03FF89FFFFFFFFFE03FF939
S1131EC09FFFFFFFFFE03FF99FFFFFFFFFC03FF9C8
S1131ED09FFFFFFFFFC03FF99FFFFFFFFFC03FF9D8
S1131EE09FFFFFFFFFC03FF99FFFFFFFFFC07FF988
S1131EF09FFFFFFFFFC07FF9CFFFFFFFFFC07FF30E
S1131F00CFFFFFFFFFC07FF3CFFFFFFFFFC07FF3D3
S1131F10CFFFFFFFFFC07FF3CFFFFFFFFFC07FF3C3
S1131F20C7FFFFFFFFC07FE3C7FFFFFFFFC07FE3E3
S1131F30E7FFFFFFFFC07FE7E7FFFFFFFFC07FE78B
S1131F40E3FFFFFFFF807FC7E3FFFFFFFF807FC743
S1131F50F3FFFFFFFF80FFCFF1FFFFFFFF80FFCF05
S1131F60F1FFFFFFFF80FF8FF1FFFFFFFF80FF8F77
S1131F70F9FFFFFFFF80FF9FF8FFFFFFFF80FF1FB8
S1131F80F8FFFFFFFF80FF1FFC7FFFFFFF00FF3F05
S1131F90FC7FFFFFFF00FE3FFC7FFFFFFF01FE3FD2
S1131FA0FE3FFFFFFF01FE7FFE3FFFFFFF01FC7FBF
S1131FB0FE1FFFFFFF01FC7FFF1FFFFFFE01F8FF75
S1131FC0FF0FFFFFFE01F8FFFF8FFFFFFE01F1FF90
S1131FD0FF87FFFFFE03F1FFFFC7FFFFFE03E3FFE1
S1131FE0FFC3FFFFFE03C3FFFFE1FFFFFC03C7FFC7
S1131FF0FFE1FFFFFC0387FFFFF0FFFFFC070FFF7C
S1132000FFF87FFFFC061FFFFFF83FFFF8061FFFE6
S1132010FFFC1FFFF8003FFFFFFE0FFFF8007FFFEC
S1132020FFFF07FFF800FFFFFFFF83FFF001FFFF43
S1132030FFFF80FFF001FFFFFFFFC03FF003FFFF42
S1132040FFFFF007E00FFFFFFFFFF800001FFFFF97
S1132050FFFFFC00003FFFFFFFFFFF0000FFFFFF4B
S1132060FFFFFFE007FFFFFFFFFFFFF00FFFFFFF92
S113207000000000005C00000C000C007C287C28A0
S113208058DC68002410480028542840000C000044
S1132090007884008478000054385400107C1000C8
S11320A080400000101010000040000060100C0080
S11320B038543800487C40004864580044542C008C
S11320C01C107C005C5424003854240064140C005C
S11320D068542C0048543800004800008048000030
S11320E0102844002828280044281000045408001C
S11320F038445C00781478007C5428003844280064
S11321007C4438007C5444007C140400384474003B
S11321107C107C00447C440020403C007C106C001B
S11321207C4040007C187C0078103C003844380027
S11321307C1408003844B8007C1468004854240017
S1132140047C04007C407C003C603C007C307C00CF
S11321506C106C000C700C0064544C00007C440047
S11321600C106000447C000008040800808080009B
S113217000040800304878007C48300030484800AB
S113218030487C00306850001078140090A8780023
S11321907C08700050744000808074007C106800DB
S11321A0447C400078107800780870003048300093
S11321B0F82810003048F80078100800505828001B
S11321C0083C4800384078003840380078207800CF
S11321D04830480098A07800486858001078840077
S11321E0007C00008478100008040804000000004B
S11321F00000005F00000007000700147F147F1434
S1132200242A7F2A12231308646236495522500077
S113221005030000001C2241000041221C00082A82
S11322201C2A0808083E0808005030000008080866
S11322300808006060000020100804023E5149456F
S11322403E00427F400042615149462141454B31A5
S11322501814127F1027454545393C4A4949300135
S1132260710905033649494936064949291E00368C
S113227036000000563600000008142241141414DD
S1132280141441221408000201510906324979410B
S11322903E7E1111117E7F494949363E414141221A
S11322A07F4141221C7F494949417F090901013E7F
S11322B0414151327F0808087F00417F410020409E
S11322C0413F017F081422417F404040407F020487
S11322D0027F7F0408107F3E4141413E7F09090986
S11322E0063E4151215E7F09192946464949493133
S11322F001017F01013F4040403F1F2040201F7FDC
S11323002018207F631408146303047804036151C4
S113231049454300007F4141020408102041417FA8
S11323200000040201020440404040400001020455
S11323300020545454787F4844443838444444205A
S1132340384444487F3854545418087E090102081C
S11323501454543C7F0804047800447D4000204019
S1132360443D00007F10284400417F40007C041855
S113237004787C0804047838444444387C141414E5
S113238008081414187C7C08040408485454542085
S1132390043F4440203C4040207C1C2040201C3C06
S11323A04030403C44281028440C5050503C446475
S11323B0544C44000836410000007F0000004136C0
S11323C00800020103020118187E3C1800000000F6
S11323D00000000000065F5F060000000007070021
S11323E007070000147F7F147F7F1400242E6B6B7B
S11323F03A120000466630180C666200307A4F5D6F
S1132400377A48000407030000000000001C3E6304
S1132410410000000041633E1C000000082A3E1CED
S11324201C3E2A0808083E3E0808000000A0E060A0
S113243000000000080808080808000000006060A8
S1132440000000006030180C060301003E7F594D67
S11324507F3E000042427F7F404000006273594942
S11324606F660000226349497F360000181C16136A
S11324707F7F1000276745457D3900003C7E4B492E
S113248079300000036371190F070000367F494952
S11324907F360000064F49693F1E000000006C6C47
S11324A00000000000A0EC6C00000000081C366373
S11324B04100000014141414141400000041633685
S11324C01C080000020351590F0600003E7F415DC5
S11324D05D1F1E007C7E13137E7C0000417F7F49BC
S11324E0497F36001C3E634141632200417F7F41A6
S11324F0637F1C00417F7F495D416300417F7F49C9
S11325001D0103001C3E6341517372007F7F080864
S11325107F7F000000417F7F410000003070404118
S11325207F3F0100417F7F081C776300417F7F412B
S1132530406070007F7F060C067F7F007F7F060C63
S1132540187F7F001C3E6341633E1C00417F7F492E
S1132550090F06001E3F21717F5E0000417F7F1935
S1132560396F460026674D597B32000003417F7F57
S1132570410300007F7F40407F7F00001F3F606079
S11325803F1F00007F7F3018307F7F0063771C0877
S11325901C776300074F78784F0700006773594D25
S11325A047637100007F7F41410000000103060C76
S11325B0183060000041417F7F000000080C0603D2
S11325C0060C0800808080808080808000000307E3
S11325D004000000207454543C784000413F7F4480
S11325E0447C3800387C44446C28000030784849E6
S11325F03F7F4000387C54545C180000487E7F497B
S11326000302000098BCA4A4F87C0400417F7F0866
S1132610047C780000447D7D4000000040C484FDBB
S11326207D000000417F7F10386C440000417F7FB3
S1132630400000007C7C0C180C7C78007C7C04043A
S11326407C780000387C44447C38000084FCF8A486
S1132650243C1800183C24A4F8FC8400447C7844EE
S11326601C180000485C54547424000000043E7F8D
S1132670442400003C7C40403C7C40001C3C6060A6
S11326803C1C00003C7C6030607C3C00446C381096
S1132690386C44009CBCA0A0FC7C00004C64745CBE
S11326A04C64000008083E774141000000000077B8
S11326B0770000004141773E08080000020301034F
S11326C00203010011241FBECFEFD4E0DEBFCDBF53
S11326D011E0A0E0B1E0E6E1F6E302C005900D925E
S11326E0AE34B107D9F721E0AEE4B1E001C01D92E8
S11326F0AB35B207E1F70E94D5130C94091B0C9477
S113270000008C5F8093001482E58A95F1F7609154
S1132710001470E080E090E00E94851820E030E032
S113272040E053E40E94851720E030E04EEF52E48D
S11327300E94EA1720E030E048EC52E40E941119AC
S11327400E9452189B01675F7F4F6331710510F43B
S113275020E030E0C901089585B7806885BF80B75F
S1132760806280BF0895009731F000C000C000006F
S113277001970097D1F708950F931F93CF93DF9399
S11327808C01EB011C161D065CF4959AC8010E948D
S1132790B3139598C8010E94B31321972097A9F702
S11327A0DF91CF911F910F910895CFEFC1BB0E948C
S11327B04F170E9440170E94AC130E94091417BAC5
S11327C0C8BB0E94A514B09B06C060E273E085E01C
S11327D091E00E94BC13B1990E94A5140E943C157B
S11327E002C00E94EC160E94FF138823D1F30E94BA
S11327F03816E9CF80E090E00E948113089581E0CB
S1132800B29980E0089586B380E0089586B381701C
S1132810089585B7806885BF80B7806280BFE091E6
S11328200801F09109018EEA8083E0910801F0919A
S1132830090181EA8083E0910801F09109018AEDA0
S11328408083E0910801F091090182E18083E091A5
S11328500801F091090188EC8083E0910801F0916E
S1132860090188EA8083E0910801F09109018FE36E
S11328708083E0910801F091090185ED8083E09166
S11328800801F091090180E88083E0910801F0914A
S1132890090181E88083E0910801F091090180E554
S11328A08083E0910801F091090189ED8083E09132
S11328B00801F091090181E28083E0910801F0911F
S11328C0090180E28083E0910801F091090182E02E
S11328D08083E0910801F09109018BED8083E09100
S11328E00801F091090180E38083E0910801F091EF
S11328F009018DEA8083E0910801F09109011082B9
S1132900E0910801F091090184EA8083E0910801D3
S1132910F091090186EA8083E0910801F0910901B0
S11329208FEA80830895E0910801F091090180EB1A
S11329308083E0910801F09109011082E09108017F
S1132940F091090180E18083089520EB40E830E0B4
S1132950E0910801F09109012083842F932FE091E5
S11329600601F0910701108201970097C1F72F5FCC
S1132970283B71F70E94931408950F931F93CF93EC
S1132980DF93C62FD0E01C161D060CF041C0282F83
S113299030E020523109D901AA0FBB1FAA0FBB1F77
S11329A0AD0140595F4DA20FB31FA451BE4D220F7C
S11329B0331F220F331F220F331F24533C4D80E05B
S11329C090E0643049F40091060110910701FA0186
S11329D07491F801708313C0653049F400910601C5
S11329E010910701FD017491F801708308C00091F2
S11329F0060110910701F9017491F80170830196A1
S1132A004F5F5F4F11962F5F3F4F8C179D07CCF29E
S1132A1080E090E0DF91CF911F910F9108951F9373
S1132A20CF93DF93EC01162F8881882339F0219608
S1132A30612F0E94BD1489918111FACF80E090E04A
S1132A40DF91CF911F9108958830A8F4962F9F703D
S1132A50E0910801F091090180558083E09108011B
S1132A60F09109019083E0910801F09109016295C8
S1132A706F70606160830895DF92EF92FF920F930D
S1132A801F93CF93DF930E94A5140E94931468E0D0
S1132A908AE091E00E940F1560E084E00E94241512
S1132AA068E08AE191E00E940F1568E284E00E94E8
S1132AB0241508E210E0C0E0D0E06894EE24E6F8C3
S1132AC0FF24F394D12C0E94FA13C39794F0602F3F
S1132AD084E00E942415E39468E08E2D0E94BD14C6
S1132AE02FEF8FEB93E0215080409040E1F700C03E
S1132AF000000E94FA138E3C9F4F94F4602F84E0F0
S1132B000E942415EA9468E08E2D0E94BD148FEF74
S1132B109FEB23E0815090402040E1F700C000008B
S1132B200E940614019781F4FE01E25BFE4FE082ED
S1132B302196085F1F4F8FEF9FE727E08150904059
S1132B402040E1F700C000000E9406142F2DC13080
S1132B50D10509F02D2D222351F02F2D019709F0D5
S1132B602D2D222321F0602F84E00E9424150E9441
S1132B7006142F2D019709F02D2D222359F08F2DA6
S1132B80C230D10509F08D2D882321F0602F84E017
S1132B900E942415C330D1050CF495CF8EE491E046
S1132BA0DF91CF911F910F91FF90EF90DF900895E7
S1132BB01F93CF93DF930E949314E0910801F09147
S1132BC0090180E28083E0910801F091090181E02C
S1132BD080836AE070E010E0D0E0C12FBD2F35C0E3
S1132BE02FEF8FE791E0215080409040E1F700C043
S1132BF000C08C2F9B2F9A0120593F4FF901E80FF9
S1132C00F91FF491EF2FEE0FEA7AF695F575EF2B95
S1132C10AE2FAA0FAA0FAC7CE695E695E373AE2B14
S1132C20A295E0910601F0910701A0830196811518
S1132C30E4E09E0719F75C5F41152CE1520781F629
S1132C40615071096115710519F0412F5D2FC8CFCD
S1132C50E0910801F091090180E28083E09108018C
S1132C60F091090182E08083DF91CF911F91089553
S1132C70DF92EF92FF920F931F93CF93DF930E9403
S1132C80A5140E94931469E680E00E94241568E06C
S1132C908EE491E00E940F1560E080E00E9424150C
S1132CA068E080E291E00E940F156AE082E00E94F1
S1132CB0241565E08AE291E00E940F156AE084E041
S1132CC00E94241565E085E391E00E940F156AE0F7
S1132CD086E00E94241565E080E491E00E940F15CF
S1132CE060E082E00E94241565E08FE70E94BD1435
S1132CF0C2E0D0E00F2EF6E0DF2EF02DE12C689438
S1132D00FF24F1F800E011E05AC00E94FA13C397BF
S1132D10FCF060E08C2F0E94241565E080E20E94A4
S1132D20BD142297C230D10514F4CD2DDE2D60E000
S1132D308C2F0E94241565E08FE70E94BD149FEF3D
S1132D402FE784E0915020408040E1F700C000006C
S1132D500E94FA138E3C9F4FFCF460E08C2F0E947B
S1132D60241565E080E20E94BD142296C730D10587
S1132D7014F0CF2DD02F60E08C2F0E94241565E035
S1132D808FE70E94BD142FEF8FE794E0215080401D
S1132D909040E1F700C000000E94FF13212F01972B
S1132DA009F020E0222359F0812FC630D10509F023
S1132DB080E0882321F00E94D8150E9438160E94D2
S1132DC00314019709F0A1CFDF91CF911F910F91C7
S1132DD0FF90EF90DF900895CF93DF930E949314B8
S1132DE081E090E00E948113EC0180E090E00E9479
S1132DF081139E01DD2314F42F5F3F4F35952795F2
S1132E006CE070E00E945D17862F622F0E942415EB
S1132E10E0910801F091090180E28083E0910801CA
S1132E20F091090181E08083E0E7FCE180E790E232
S1132E303491232F220F2A7A36953575232B322F7E
S1132E40330F330F3C7C269526952373232B229531
S1132E50A0910601B09107012C933196E817F90768
S1132E6039F7E0910801F091090180E28083E09153
S1132E700801F091090182E08083DF91CF910895E8
S1132E8085B7806885BF80B7806280BF08955F9BE7
S1132E90FECF8CB108955D9BFECF8CB9089510BC14
S1132EA08FE189B988E18AB98EE880BD67E477E16A
S1132EB08BE497E10E947419089597FB072E16F48A
S1132EC0009407D077FD09D00E94711707FC05D044
S1132ED03EF4909581959F4F0895709561957F4F2D
S1132EE00895AA1BBB1B51E107C0AA1FBB1FA6174D
S1132EF0B70710F0A61BB70B881F991F5A95A9F79F
S1132F0080959095BC01CD0108955058BB27AA2700
S1132F100ED04DC13ED130F043D120F031F49F3F6B
S1132F2011F41EF433C10EF4E095E7FB29C1E92F37
S1132F304FD180F3BA17620773078407950718F017
S1132F4071F49EF567C10EF4E0950B2EBA2FA02DF7
S1132F500B01B90190010C01CA01A0011124FF2742
S1132F60591B99F0593F50F4503E68F11A16F0403D
S1132F70A22F232F342F4427585FF3CF469537953C
S1132F802795A795F0405395C9F77EF41F16BA0B01
S1132F90620B730B840BBAF09150A1F0FF0FBB1FAF
S1132FA0661F771F881FC2F70EC0BA0F621F731FF8
S1132FB0841F48F4879577956795B795F7959E3F55
S1132FC008F0B3CF9395880F08F09927EE0F9795E3
S1132FD0879508950CD0EBC0E3D040F0DAD030F000
S1132FE021F45F3F19F0CCC0511115C1CFC0F0D00E
S1132FF098F39923C9F35523B1F3951B550BBB27BC
S1133000AA2762177307840738F09F5F5F4F220F68
S1133010331F441FAA1FA9F333D00E2E3AF0E0E861
S113302030D091505040E695001CCAF729D0FE2FAD
S113303027D0660F771F881FBB1F2617370748073F
S1133040AB07B0E809F0BB0B802DBF01FF279358F5
S11330505F4F2AF09E3F510568F092C0DCC05F3F8D
S1133060ECF3983EDCF3869577956795B795F795DD
S11330709F5FC9F7880F911D9695879597F90895D5
S1133080E1E0660F771F881FBB1F62177307840771
S1133090BA0720F0621B730B840BBA0BEE1F88F780
S11330A0E095089504D06894B111B5C0089598D0FE
S11330B088F09F5790F0B92F9927B751A0F0D1F01D
S11330C0660F771F881F991F1AF0BA95C9F712C0A7
S11330D0B13081F09FD0B1E008959CC0672F782F64
S11330E08827B85F39F0B93FCCF386957795679513
S11330F0B395D9F73EF490958095709561957F4F7F
S11331008F4F9F4F0895E89409C097FB3EF4909524
S11331108095709561957F4F8F4F9F4F9923A9F0AC
S1133120F92F96E9BB279395F6958795779567953B
S1133130B795F111F8CFFAF4BB0F11F460FF1BC07F
S11331406F5F7F4F8F4F9F4F16C0882311F096E912
S113315011C0772321F09EE8872F762F05C06623C0
S113316071F096E8862F70E060E02AF09A95660F79
S1133170771F881FDAF7880F9695879597F9089532
S113318097F99F6780E870E060E008959FEF80EC16
S1133190089500240A9416161706180609060895B9
S11331A000240A9412161306140605060895092E1F
S11331B00394000C11F4882352F0BB0F40F4BF2B8E
S11331C011F460FF04C06F5F7F4F8F4F9F4F0895CE
S11331D057FD9058440F551F59F05F3F71F04795C4
S11331E0880F97FB991F61F09F3F79F087950895A9
S11331F0121613061406551FF2CF4695F1DF08C0C8
S1133200161617061806991FF1CF869571056105E4
S113321008940895E894BB2766277727CB0197F98C
S113322008950BD0C4CFB5DF28F0BADF18F095238A
S113323009F0A6CFABCF1124EECFCADFA0F3959F40
S1133240D1F3950F50E0551F629FF001729FBB2789
S1133250F00DB11D639FAA27F00DB11DAA1F649F35
S11332606627B00DA11D661F829F2227B00DA11DE8
S1133270621F739FB00DA11D621F839FA00D611D6E
S1133280221F749F3327A00D611D231F849F600D8F
S1133290211D822F762F6A2F11249F5750408AF0C8
S11332A0E1F088234AF0EE0FFF1FBB1F661F771F54
S11332B0881F91505040A9F79E3F510570F060CF90
S11332C0AACF5F3FECF3983EDCF38695779567953C
S11332D0B795F795E7959F5FC1F7FE2B880F911D72
S11332E09695879597F908950F931F93CF93DF933E
S11332F0EC018B01009731F46115710519F480E03C
S113330090E038C06EE070E081E090E00E94BF1968
S1133310FC010097A1F380E883830115110571F086
S11333201387028781E88383809151019091520130
S1133330892B21F4F0935201E09351012097C9F0B5
S1133340D187C08783818260838380915301909168
S11333505401892B71F4F0935401E093530180914B
S1133360550190915601892B21F4F0935601E09375
S11333705501CF01DF91CF911F910F9108950F93C4
S11333801F93CF93DF93869F8001879F100D969F95
S1133390100D1124C8010E94DB19EC01009729F0DB
S11333A0A80160E070E00E94021BCE01DF91CF9182
S11333B01F910F910895CF93DF938230910510F4FC
S11333C082E090E0E0915901F0915A0120E030E070
S11333D0A0E0B0E0309739F1408151814817590796
S11333E0B8F04817590771F482819381109729F036
S11333F013969C938E9312972CC090935A018093AA
S1133400590127C02115310531F04217530718F02F
S1133410A901DB0101C0EF019A01BD01DF010280B6
S1133420F381E02DD7CF21153105F9F0281B390B95
S11334302430310580F48A819B816115710521F066
S1133440FB019383828304C090935A0180935901B2
S1133450FE01329644C0FE01E20FF31F8193919363
S113346022503109398328833AC020915701309181
S11334705801232B41F42091020130910301309330
S11334805801209357012091000130910101211529
S1133490310541F42DB73EB7409104015091050127
S11334A0241B350BE0915701F0915801E217F30703
S11334B0A0F42E1B3F0B2817390778F0AC014E5FA0
S11334C05F4F2417350748F04E0F5F1F5093580184
S11334D0409357018193919302C0E0E0F0E0CF0163
S11334E0DF91CF910895CF93DF93009709F487C0BC
S11334F0FC01329713821282C0915901D0915A0172
S1133500209781F420813181280F391F8091570140
S1133510909158018217930779F5F0935801E0933D
S113352057016DC0DE0120E030E0AE17BF0750F454
S113353012964D915C9113979D014115510509F126
S1133540DA01F3CFB383A28340815181840F951FA5
S11335508A179B0771F48D919C911197840F951F85
S113356002969183808312968D919C9113979383F5
S113357082832115310529F4F0935A01E09359010E
S11335803EC0D9011396FC93EE9312974D915D9131
S1133590A40FB51FEA17FB0779F480819181840F8A
S11335A0951F0296D90111969C938E9382819381E3
S11335B013969C938E931297E0E0F0E08A819B81AE
S11335C0009719F0FE01EC01F9CFCE010296288193
S11335D03981820F931F2091570130915801281788
S11335E0390769F4309729F410925A01109259015D
S11335F002C013821282D0935801C0935701DF9105
S1133600CF910895DC0101C06D9341505040E0F723
S10936100895F894FFCFB9
S113361600005B0120000012001043484F4F534541
S113362620555345524E414D45004E616D653A0055
S1133636506F6B65506F6E67210050696E672D5031
S11336466F6E673A004869676873636F72653A001C
S111365652616E646F6D206B6E6170700000C7
S9030000FC
