S00F00004279676765726E2E7372656347
S11300000C9462050C947F050C947F050C947F0579
S11300100C947F050C947F050C947F050C947F054C
S11300200C947F050C947F050C947F050C947F053C
S11300300C947F050C947F050C947F050C947F052C
S11300400C947F050C947F050C947F050C947F051C
S11300500C947F050C947F050C947F050C947F050C
S11300600C947F050C947F050C947F050C947F05FC
S1130070FFFFFFF00FFFFFFFFFFFFFE007FFFFFFA2
S1130080FFFFFF0000FFFFFFFFFFFC00003FFFFF3B
S1130090FFFFF800001FFFFFFFFFF01FE00FFFFF4F
S11300A0FFFFC07FF003FFFFFFFF81FFF001FFFFB1
S11300B0FFFF83FFF001FFFFFFFF0FFFF800FFFFCB
S11300C0FFFE1FFFF8087FFFFFFC3FFFF80C3FFF18
S11300D0FFF87FFFF80E1FFFFFF87FFFFC071FFFED
S11300E0FFF0FFFFFC070FFFFFE1FFFFFC0787FFA7
S11300F0FFE3FFFFFC07C7FFFFC3FFFFFC07C3FFCE
S1130100FFC7FFFFFE03E3FFFF8FFFFFFE03F1FFC7
S1130110FF8FFFFFFE03F1FFFF1FFFFFFE03F8FF4A
S1130120FF1FFFFFFE03F8FFFE3FFFFFFF03FC7FFF
S1130130FE3FFFFFFF01FC7FFE7FFFFFFF01FE7F0D
S1130140FC7FFFFFFF00FE3FFC7FFFFFFE007E3FC2
S1130150FCFFFFFFFE007F3FF8FFFFFFFC003F1F97
S1130160F8FFFFFFFC001F1FF9FFFFFFF83C0F9F84
S1130170F1FFFFFFF87F0F8FF1FFFFFFF0FF0F8FFD
S1130180F3FFFFFFF0FF87CFF3FFFFFFF1FFC7CFC0
S1130190E3FFFFFFE1E3C7C7E3FFFFFFE3C1E3C7FB
S11301A0E7FFFFFFE3CCE3E7E7FFFFFFE39EE3E7BF
S11301B0C7FFFFFFE3BE63E3C7FFFFFFE3BF73E3D4
S11301C0CFFFFFFFE7BF73F3CFFFFFFFE7BF73F37B
S11301D0CFFFFFFFE7BF73F3CFFFFFFFE7BF73F36B
S11301E0CFFFFFFFE3BF73F39FFFFFFFE3BF73F195
S11301F09FFFFFFFE39E73F99FFFFFFFE3DEE3F939
S11302009FFFFFFFE3C0E3F99FFFFFFFE1E1E3F995
S11302109FFFFFFFF1FFE3F99FFFFFFFF1FFC7F926
S11302209FFFFFFFF0FFC7F91FFFFFFFF0FF87F8F5
S11302301FFFFFFFF87F07F81FFFFFFFF81E0FF8EF
S11302403FFFFFFFFC080FFC3FFFFFFFFC001FFC0C
S11302503FFFFFFFFE001FFC3FFFFFFFFF003FFCCF
S11302603FFFFFFFFF003FFC3FFFFFFFFFC03FFCDE
S11302703FFFFFFFFFE03FFC3FFFFFFFFFE03FFCCE
S11302803FFFFFFFFFE03FFC3FFFFFFFFFE03FFCBE
S11302903FFFFFFFFFE03FFC3FFFFFFFFFE03FFCAE
S11302A01FFFFFFFFFE03FF81FFFFFFFFFE03FF8E6
S11302B01FFFFFFFFFE03FF89FFFFFFFFFE03FF955
S11302C09FFFFFFFFFE03FF99FFFFFFFFFC03FF9E4
S11302D09FFFFFFFFFC03FF99FFFFFFFFFC03FF9F4
S11302E09FFFFFFFFFC03FF99FFFFFFFFFC07FF9A4
S11302F09FFFFFFFFFC07FF9CFFFFFFFFFC07FF32A
S1130300CFFFFFFFFFC07FF3CFFFFFFFFFC07FF3EF
S1130310CFFFFFFFFFC07FF3CFFFFFFFFFC07FF3DF
S1130320C7FFFFFFFFC07FE3C7FFFFFFFFC07FE3FF
S1130330E7FFFFFFFFC07FE7E7FFFFFFFFC07FE7A7
S1130340E3FFFFFFFF807FC7E3FFFFFFFF807FC75F
S1130350F3FFFFFFFF80FFCFF1FFFFFFFF80FFCF21
S1130360F1FFFFFFFF80FF8FF1FFFFFFFF80FF8F93
S1130370F9FFFFFFFF80FF9FF8FFFFFFFF80FF1FD4
S1130380F8FFFFFFFF80FF1FFC7FFFFFFF00FF3F21
S1130390FC7FFFFFFF00FE3FFC7FFFFFFF01FE3FEE
S11303A0FE3FFFFFFF01FE7FFE3FFFFFFF01FC7FDB
S11303B0FE1FFFFFFF01FC7FFF1FFFFFFE01F8FF91
S11303C0FF0FFFFFFE01F8FFFF8FFFFFFE01F1FFAC
S11303D0FF87FFFFFE03F1FFFFC7FFFFFE03E3FFFD
S11303E0FFC3FFFFFE03C3FFFFE1FFFFFC03C7FFE3
S11303F0FFE1FFFFFC0387FFFFF0FFFFFC070FFF98
S1130400FFF87FFFFC061FFFFFF83FFFF8061FFF02
S1130410FFFC1FFFF8003FFFFFFE0FFFF8007FFF08
S1130420FFFF07FFF800FFFFFFFF83FFF001FFFF5F
S1130430FFFF80FFF001FFFFFFFFC03FF003FFFF5E
S1130440FFFFF007E00FFFFFFFFFF800001FFFFFB3
S1130450FFFFFC00003FFFFFFFFFFF0000FFFFFF67
S1130460FFFFFFE007FFFFFFFFFFFFF00FFFFFFFAE
S113047000000000005C00000C000C007C287C28BC
S113048058DC68002410480028542840000C000060
S1130490007884008478000054385400107C1000E4
S11304A080400000101010000040000060100C009C
S11304B038543800487C40004864580044542C00A8
S11304C01C107C005C5424003854240064140C0078
S11304D068542C004854380000480000804800004C
S11304E01028440028282800442810000454080038
S11304F038445C00781478007C5428003844280080
S11305007C4438007C5444007C1404003844740057
S11305107C107C00447C440020403C007C106C0037
S11305207C4040007C187C0078103C003844380043
S11305307C1408003844B8007C1468004854240033
S1130540047C04007C407C003C603C007C307C00EB
S11305506C106C000C700C0064544C00007C440063
S11305600C106000447C00000804080080808000B7
S113057000040800304878007C48300030484800C7
S113058030487C00306850001078140090A878003F
S11305907C08700050744000808074007C106800F7
S11305A0447C4000781078007808700030483000AF
S11305B0F82810003048F800781008005058280037
S11305C0083C4800384078003840380078207800EB
S11305D04830480098A07800486858001078840093
S11305E0007C000084781000080408040000000067
S11305F00000005F00000007000700147F147F1450
S1130600242A7F2A12231308646236495522500093
S113061005030000001C2241000041221C00082A9E
S11306201C2A0808083E0808005030000008080882
S11306300808006060000020100804023E5149458B
S11306403E00427F400042615149462141454B31C1
S11306501814127F1027454545393C4A4949300151
S1130660710905033649494936064949291E0036A8
S113067036000000563600000008142241141414F9
S11306801414412214080002015109063249794127
S11306903E7E1111117E7F494949363E4141412236
S11306A07F4141221C7F494949417F090901013E9B
S11306B0414151327F0808087F00417F41002040BA
S11306C0413F017F081422417F404040407F0204A3
S11306D0027F7F0408107F3E4141413E7F090909A2
S11306E0063E4151215E7F0919294646494949314F
S11306F001017F01013F4040403F1F2040201F7FF8
S11307002018207F631408146303047804036151E0
S113071049454300007F4141020408102041417FC4
S11307200000040201020440404040400001020471
S11307300020545454787F48444438384444442076
S1130740384444487F3854545418087E0901020838
S11307501454543C7F0804047800447D4000204035
S1130760443D00007F10284400417F40007C041871
S113077004787C0804047838444444387C14141401
S113078008081414187C7C080404084854545420A1
S1130790043F4440203C4040207C1C2040201C3C22
S11307A04030403C44281028440C5050503C446491
S11307B0544C44000836410000007F0000004136DC
S11307C00800020103020118187E3C180000000012
S11307D00000000000065F5F06000000000707003D
S11307E007070000147F7F147F7F1400242E6B6B97
S11307F03A120000466630180C666200307A4F5D8B
S1130800377A48000407030000000000001C3E6320
S1130810410000000041633E1C000000082A3E1C09
S11308201C3E2A0808083E3E0808000000A0E060BC
S113083000000000080808080808000000006060C4
S1130840000000006030180C060301003E7F594D83
S11308507F3E000042427F7F40400000627359495E
S11308606F660000226349497F360000181C161386
S11308707F7F1000276745457D3900003C7E4B494A
S113088079300000036371190F070000367F49496E
S11308907F360000064F49693F1E000000006C6C63
S11308A00000000000A0EC6C00000000081C36638F
S11308B041000000141414141414000000416336A1
S11308C01C080000020351590F0600003E7F415DE1
S11308D05D1F1E007C7E13137E7C0000417F7F49D8
S11308E0497F36001C3E634141632200417F7F41C2
S11308F0637F1C00417F7F495D416300417F7F49E5
S11309001D0103001C3E6341517372007F7F080880
S11309107F7F000000417F7F410000003070404134
S11309207F3F0100417F7F081C776300417F7F4147
S1130930406070007F7F060C067F7F007F7F060C7F
S1130940187F7F001C3E6341633E1C00417F7F494A
S1130950090F06001E3F21717F5E0000417F7F1951
S1130960396F460026674D597B32000003417F7F73
S1130970410300007F7F40407F7F00001F3F606095
S11309803F1F00007F7F3018307F7F0063771C0893
S11309901C776300074F78784F0700006773594D41
S11309A047637100007F7F41410000000103060C92
S11309B0183060000041417F7F000000080C0603EE
S11309C0060C0800808080808080808000000307FF
S11309D004000000207454543C784000413F7F449C
S11309E0447C3800387C44446C2800003078484902
S11309F03F7F4000387C54545C180000487E7F4997
S1130A000302000098BCA4A4F87C0400417F7F0882
S1130A10047C780000447D7D4000000040C484FDD7
S1130A207D000000417F7F10386C440000417F7FCF
S1130A30400000007C7C0C180C7C78007C7C040456
S1130A407C780000387C44447C38000084FCF8A4A2
S1130A50243C1800183C24A4F8FC8400447C78440A
S1130A601C180000485C54547424000000043E7FA9
S1130A70442400003C7C40403C7C40001C3C6060C2
S1130A803C1C00003C7C6030607C3C00446C3810B2
S1130A90386C44009CBCA0A0FC7C00004C64745CDA
S1130AA04C64000008083E774141000000000077D4
S1130AB0770000004141773E08080000020301036B
S1130AC00203010011241FBECFEFD4E0DEBFCDBF6F
S1130AD011E0A0E0B1E0E8E6FDE102C005900D926E
S1130AE0A635B107D9F721E0A6E5B1E001C01D9212
S1130AF0A036B207E1F70E94D5050C94B20E0C940F
S1130B0000008C5F8093001482E58A95F1F7609170
S1130B10001470E080E090E00E946B0920E030E077
S1130B2040E053E40E946B0820E030E04EEF52E4D2
S1130B300E94D00820E030E048EC52E40E94F7091B
S1130B400E9438099B01675F7F4F6331710510F480
S1130B5020E030E0C901089585B7806885BF80B77B
S1130B60806280BF0895009731F000C000C000008B
S1130B7001970097D1F708950F931F93CF93DF93B5
S1130B808C01EB011C161D065CF4959AC8010E94A9
S1130B90B3059598C8010E94B30521972097A9F73A
S1130BA0DF91CF911F910F910895CFEFC1BB0E94A8
S1130BB035080E9426080E94AC050E94090617BA4F
S1130BC0C8BB0E94A506B09B06C060E273E085E046
S1130BD091E00E94BC05B19B05C00E94A50602C01D
S1130BE00E94D2070E94FE058823D1F30E943C078D
S1130BF0EACF80E090E00E948105089586B382FBED
S1130C00882780F991E08927089586B386958170B5
S1130C10089585B7806885BF80B7806280BFE09102
S1130C200801F09109018EEA8083E0910801F091B6
S1130C30090181EA8083E0910801F09109018AEDBC
S1130C408083E0910801F091090182E18083E091C1
S1130C500801F091090188EC8083E0910801F0918A
S1130C60090188EA8083E0910801F09109018FE38A
S1130C708083E0910801F091090185ED8083E09182
S1130C800801F091090180E88083E0910801F09166
S1130C90090181E88083E0910801F091090180E570
S1130CA08083E0910801F091090189ED8083E0914E
S1130CB00801F091090181E28083E0910801F0913B
S1130CC0090180E28083E0910801F091090182E04A
S1130CD08083E0910801F09109018BED8083E0911C
S1130CE00801F091090180E38083E0910801F0910B
S1130CF009018DEA8083E0910801F09109011082D5
S1130D00E0910801F091090184EA8083E0910801EF
S1130D10F091090186EA8083E0910801F0910901CC
S1130D208FEA80830895E0910801F091090180EB36
S1130D308083E0910801F09109011082E09108019B
S1130D40F091090180E18083089520EB40E830E0D0
S1130D50E0910801F09109012083842F932FE09101
S1130D600601F0910701108201970097C1F72F5FE8
S1130D70283B71F70E94930608950F931F93CF9316
S1130D80DF93C62FD0E01C161D060CF041C0282F9F
S1130D9030E020523109D901AA0FBB1FAA0FBB1F93
S1130DA0AD0140595B4FA20FB31FA451BA4F220F9C
S1130DB0331F220F331F220F331F2453384F80E079
S1130DC090E0643049F40091060110910701FA01A2
S1130DD07491F801708313C0653049F400910601E1
S1130DE010910701FD017491F801708308C000910E
S1130DF0060110910701F9017491F80170830196BD
S1130E004F5F5F4F11962F5F3F4F8C179D07CCF2BA
S1130E1080E090E0DF91CF911F910F9108951F938F
S1130E20CF93DF93EC01162F8881882339F0219624
S1130E30612F0E94BD0689918111FACF80E090E074
S1130E40DF91CF911F9108958830A8F4962F9F7059
S1130E50E0910801F091090180558083E091080137
S1130E60F09109019083E0910801F09109016295E4
S1130E706F70606160830895EF92FF920F931F93E8
S1130E80CF93DF938AE091E09F938F930E94A50A0A
S1130E900E94A5060E94930668E08EE091E00E94FD
S1130EA00F076AE082E00E94240765E089E191E08F
S1130EB00E940F076AE084E00E94240765E084E250
S1130EC091E00E940F076AE086E00E94240765E033
S1130ED08FE291E00E940F0760E082E00E94240705
S1130EE065E08FE70E94BD060F900F90C2E0D0E04E
S1130EF006E010E06894EE24E1F8F12C47C00E946B
S1130F00F905C397FCF060E08C2F0E94240765E08C
S1130F1080E20E94BD062297C230D10514F4C02F8E
S1130F20D12F60E08C2F0E94240765E08FE70E9498
S1130F30BD069FEF2FE784E0915020408040E1F709
S1130F4000C000000E94F9058E3C9F4FFCF460E055
S1130F508C2F0E94240765E080E20E94BD06229641
S1130F60C730D10514F0CE2DDF2D60E08C2F0E9408
S1130F70240765E08FE70E94BD062FEF8FE794E01A
S1130F80215080409040E1F700C000000E94050617
S1130F90019709F0B4CFDF91CF911F910F91FF908A
S1130FA0EF900895CF93DF930E94930681E090E041
S1130FB00E948105EC0180E090E00E9481059E0181
S1130FC0DD2314F42F5F3F4F359527956CE070E0D7
S1130FD00E944308862F622F0E942407E091080193
S1130FE0F091090180E28083E0910801F091090108
S1130FF081E08083E0E7F0E080E794E03491232F00
S1131000220F2A7A36953575232B322F330F330F5F
S11310103C7C269526952373232B2295A0910601CB
S1131020B09107012C933196E817F90739F7E0914D
S11310300801F091090180E28083E0910801F091B8
S1131040090182E08083DF91CF91089585B780689C
S113105085BF80B7806280BF08955F9BFECF8CB14F
S113106008955D9BFECF8CB9089510BC8FE189B9BA
S113107088E18AB98EE880BD6DE278E081E398E08A
S11310800E945A0A089597FB072E16F4009407D07D
S113109077FD09D00E94570807FC05D03EF49095CF
S11310A081959F4F0895709561957F4F0895AA1B70
S11310B0BB1B51E107C0AA1FBB1FA617B70710F03F
S11310C0A61BB70B881F991F5A95A9F78095909571
S11310D0BC01CD0108955058BB27AA270ED04DC19D
S11310E03ED130F043D120F031F49F3F11F41EF48F
S11310F033C10EF4E095E7FB29C1E92F4FD180F30A
S1131100BA17620773078407950718F071F49EF500
S113111067C10EF4E0950B2EBA2FA02D0B01B90177
S113112090010C01CA01A0011124FF27591B99F059
S1131130593F50F4503E68F11A16F040A22F232F65
S1131140342F4427585FF3CF469537952795A795B5
S1131150F0405395C9F77EF41F16BA0B620B730B5C
S1131160840BBAF09150A1F0FF0FBB1F661F771FCD
S1131170881FC2F70EC0BA0F621F731F841F48F482
S1131180879577956795B795F7959E3F08F0B3CF08
S11311909395880F08F09927EE0F979587950895F2
S11311A00CD0EBC0E3D040F0DAD030F021F45F3F54
S11311B019F0CCC0511115C1CFC0F0D098F39923C8
S11311C0C9F35523B1F3951B550BBB27AA27621707
S11311D07307840738F09F5F5F4F220F331F441F4C
S11311E0AA1FA9F333D00E2E3AF0E0E830D0915084
S11311F05040E695001CCAF729D0FE2F27D0660F71
S1131200771F881FBB1F261737074807AB07B0E8AF
S113121009F0BB0B802DBF01FF2793585F4F2AF0C5
S11312209E3F510568F092C0DCC05F3FECF3983EEE
S1131230DCF3869577956795B795F7959F5FC9F722
S1131240880F911D9695879597F90895E1E0660FAB
S1131250771F881FBB1F621773078407BA0720F024
S1131260621B730B840BBA0BEE1F88F7E09508958D
S113127004D06894B111B5C0089598D088F09F57F0
S113128090F0B92F9927B751A0F0D1F0660F771FCE
S1131290881F991F1AF0BA95C9F712C0B13081F0AE
S11312A09FD0B1E008959CC0672F782F8827B85F3E
S11312B039F0B93FCCF3869577956795B395D9F70F
S11312C03EF490958095709561957F4F8F4F9F4F19
S11312D00895E89409C097FB3EF490958095709525
S11312E061957F4F8F4F9F4F9923A9F0F92F96E96E
S11312F0BB279395F695879577956795B795F111E3
S1131300F8CFFAF4BB0F11F460FF1BC06F5F7F4F7F
S11313108F4F9F4F16C0882311F096E911C0772391
S113132021F09EE8872F762F05C0662371F096E89A
S1131330862F70E060E02AF09A95660F771F881F69
S1131340DAF7880F9695879597F9089597F99F6727
S113135080E870E060E008959FEF80EC0895002439
S11313600A941616170618060906089500240A9406
S113137012161306140605060895092E0394000C8C
S113138011F4882352F0BB0F40F4BF2B11F460FF1B
S113139004C06F5F7F4F8F4F9F4F089557FD905844
S11313A0440F551F59F05F3F71F04795880F97FB25
S11313B0991F61F09F3F79F08795089512161306DF
S11313C01406551FF2CF4695F1DF08C0161617060E
S11313D01806991FF1CF8695710561050894089543
S11313E0E894BB2766277727CB0197F908950BD09C
S11313F0C4CFB5DF28F0BADF18F0952309F0A6CFE3
S1131400ABCF1124EECFCADFA0F3959FD1F3950F94
S113141050E0551F629FF001729FBB27F00DB11D74
S1131420639FAA27F00DB11DAA1F649F6627B00D04
S1131430A11D661F829F2227B00DA11D621F739FED
S1131440B00DA11D621F839FA00D611D221F749FFB
S11314503327A00D611D231F849F600D211D822F42
S1131460762F6A2F11249F5750408AF0E1F0882389
S11314704AF0EE0FFF1FBB1F661F771F881F915096
S11314805040A9F79E3F510570F060CFAACF5F3F4F
S1131490ECF3983EDCF3869577956795B795F795C9
S11314A0E7959F5FC1F7FE2B880F911D9695879551
S11314B097F908950F931F93CF93DF93EC018B015A
S11314C0009731F46115710519F480E090E038C09B
S11314D06EE070E081E090E00E948B0CFC010097CC
S11314E0A1F380E883830115110571F01387028746
S11314F081E883838091560190915701892B21F4CF
S1131500F0935701E09356012097C9F0D187C08723
S11315108381826083838091580190915901892B42
S113152071F4F0935901E093580180915A0190911C
S11315305B01892B21F4F0935B01E0935A01CF0105
S1131540DF91CF911F910F910895A0E0B0E0EBEAF5
S1131550FAE00C948B0EFE01359661917191AF0106
S113156080915801909159010E94B90AE2E00C94CB
S1131570A70EACE0B0E0EFEBFAE00C947B0E7C013C
S11315806B018A01FC0117821682838181FFBDC130
S1131590CE0101964C01F7019381F60193FD8591EB
S11315A093FF81916F01882309F4ABC1853239F42B
S11315B093FD859193FF81916F01853229F4B701E1
S11315C090E00E94EB0DE7CF512C312C20E020322B
S11315D0A0F48B3269F030F4803259F0833269F42C
S11315E020612CC08D3239F0803339F4216026C05B
S11315F02260246023C0286021C027FD27C030ED6D
S1131600380F3A3078F426FF06C0FAE05F9E300DBA
S11316101124532E13C08AE0389E300D1124332E2A
S113162020620CC08E3221F426FD6BC1206406C0FA
S11316308C3611F4206802C0883641F4F60193FD1B
S1131640859193FF81916F018111C1CF982F9F7D67
S11316509554933028F40C5F1F4FFFE3F9830DC0BA
S1131660833631F0833771F0833509F05BC022C0D3
S1131670F801808189830E5F1F4F44244394512CC9
S1131680540115C03801F2E06F0E711CF801A080FE
S1131690B18026FF03C0652D70E002C06FEF7FEFBD
S11316A0C5012C870E94E00D2C0183012C852F7726
S11316B0222E17C03801F2E06F0E711CF801A080D1
S11316C0B18026FF03C0652D70E002C06FEF7FEF8D
S11316D0C5012C870E94CE0D2C012C852068222E5A
S11316E0830123FC1BC0832D90E048165906B0F4F7
S11316F0B70180E290E00E94EB0D3A94F4CFF5013B
S113170027FC859127FE81915F01B70190E00E943B
S1131710EB0D31103A94F1E04F1A51084114510481
S113172071F7E5C0843611F0893639F5F80127FFE1
S113173007C060817181828193810C5F1F4F08C053
S113174060817181882777FD8095982F0E5F1F4FE8
S11317502F76B22E97FF09C090958095709561956C
S11317607F4F8F4F9F4F2068B22E2AE030E0A401B4
S11317700E941D0EA82EA81844C0853729F42F7E78
S1131780B22E2AE030E025C0F22FF97FBF2E8F362B
S1131790C1F018F4883579F0B4C0803719F088376F
S11317A021F0AFC02F2F2061B22EB4FE0DC08B2DBF
S11317B08460B82E09C024FF0AC09F2F9660B92EFA
S11317C006C028E030E005C020E130E002C020E19E
S11317D032E0F801B7FE07C0608171818281938194
S11317E00C5F1F4F06C06081718180E090E00E5F46
S11317F01F4FA4010E941D0EA82EA818FB2DFF77D1
S1131800BF2EB6FE0BC02B2D2E7FA51450F4B4FEB4
S11318100AC0B2FC08C02B2D2E7E05C07A2C2B2DBD
S113182003C07A2C01C0752C24FF0DC0FE01EA0D03
S1131830F11D8081803311F4297E09C022FF06C086
S11318407394739404C0822F867809F0739423FDF3
S113185013C020FF06C05A2C731418F4530C5718E5
S1131860732C731468F4B70180E290E02C870E9413
S1131870EB0D73942C85F5CF731410F4371801C055
S1131880312C24FF12C0B70180E390E02C870E9422
S1131890EB0D2C8522FF17C021FF03C088E590E0E3
S11318A002C088E790E0B7010CC0822F867859F017
S11318B021FD02C080E201C08BE227FD8DE2B70169
S11318C090E00E94EB0DA51438F4B70180E390E09A
S11318D00E94EB0D5A94F7CFAA94F401EA0DF11D7E
S11318E08081B70190E00E94EB0DA110F5CF332069
S11318F009F451CEB70180E290E00E94EB0D3A94D6
S1131900F6CFF7018681978102C08FEF9FEF2C9667
S1131910E2E10C94970E0F931F93CF93DF93869F6E
S11319208001879F100D969F100D1124C8010E94FD
S1131930A70CEC01009729F0A80160E070E00E9478
S1131940D90DCE01DF91CF911F910F910895CF93BF
S1131950DF938230910510F482E090E0E0915E0123
S1131960F0915F0120E030E0A0E0B0E0309739F181
S11319704081518148175907B8F04817590771F445
S113198082819381109729F013969C938E931297DA
S11319902CC090935F0180935E0127C0211531050F
S11319A031F04217530718F0A901DB0101C0EF0120
S11319B09A01BD01DF010280F381E02DD7CF21150B
S11319C03105F9F0281B390B2430310580F48A8164
S11319D09B816115710521F0FB019383828304C00F
S11319E090935F0180935E01FE01329644C0FE0134
S11319F0E20FF31F81939193225031093983288395
S1131A003AC020915C0130915D01232B41F4209177
S1131A1002013091030130935D0120935C01209118
S1131A200001309101012115310541F42DB73EB774
S1131A304091040150910501241B350BE0915C0198
S1131A40F0915D01E217F307A0F42E1B3F0B28175A
S1131A50390778F0AC014E5F5F4F2417350748F023
S1131A604E0F5F1F50935D0140935C0181939193EE
S1131A7002C0E0E0F0E0CF01DF91CF910895CF9371
S1131A80DF93009709F487C0FC0132971382128216
S1131A90C0915E01D0915F01209781F42081318152
S1131AA0280F391F80915C0190915D018217930783
S1131AB079F5F0935D01E0935C016DC0DE0120E0F7
S1131AC030E0AE17BF0750F412964D915C91139716
S1131AD09D014115510509F1DA01F3CFB383A283C6
S1131AE040815181840F951F8A179B0771F48D9152
S1131AF09C911197840F951F02969183808312966F
S1131B008D919C911397938382832115310529F438
S1131B10F0935F01E0935E013EC0D9011396FC93FC
S1131B20EE9312974D915D91A40FB51FEA17FB0731
S1131B3079F480819181840F951F0296D9011196C1
S1131B409C938E938281938113969C938E93129788
S1131B50E0E0F0E08A819B81009719F0FE01EC013E
S1131B60F9CFCE01029628813981820F931F2091EB
S1131B705C0130915D012817390769F4309729F425
S1131B8010925F0110925E0102C013821282D09300
S1131B905D01C0935C01DF91CF910895FC01059034
S1131BA0615070400110D8F7809590958E0F9F1F5B
S1131BB00895DC0101C06D9341505040E0F7089551
S1131BC0FC016150704001900110D8F78095909508
S1131BD08E0F9F1F08950F931F93CF93DF93182F9A
S1131BE0092FEB018B8181FD03C08FEF9FEF20C094
S1131BF082FF10C04E815F812C813D8142175307C3
S1131C007CF4E881F9819F012F5F3F4F398328835A
S1131C10108306C0E885F985812F0995892B29F75A
S1131C202E813F812F5F3F4F3F832E83812F902F43
S1131C30DF91CF911F910F910895FA01AA272830BF
S1131C4051F1203181F1E8946F936E7F6E5F7F4F85
S1131C508F4F9F4FAF4FB1E03ED0B4E03CD0670F01
S1131C60781F891F9A1FA11D680F791F8A1F911D54
S1131C70A11D6A0F711D811D911DA11D20D009F4A4
S1131C8068943F912AE0269F11243019305D3193E6
S1131C90DEF6CF010895462F4770405D4193B3E0CF
S1131CA00FD0C9F7F6CF462F4F70405D4A3318F076
S1131CB0495D31FD4052419302D0A9F7EACFB4E027
S1131CC0A6959795879577956795BA95C9F70097DF
S1131CD06105710508959B01AC010A2E0694579580
S1131CE0479537952795BA95C9F7620F731F841FD7
S1131CF0951FA01D08952F923F924F925F926F926D
S1131D007F928F929F92AF92BF92CF92DF92EF9287
S1131D10FF920F931F93CF93DF93CDB7DEB7CA1B08
S1131D20DB0B0FB6F894DEBF0FBECDBF09942A8833
S1131D30398848885F846E847D848C849B84AA84DB
S1131D40B984C884DF80EE80FD800C811B81AA8168
S1131D50B981CE0FD11D0FB6F894DEBF0FBECDBF33
S10B1D60ED010895F894FFCF92
S1131D680000600120000012001048454900537526
S1131D78706572506F6E67210050696E672D506FE1
S1131D886E673A004869676873636F72653A005210
S1131D98616E646F6D2073686974203A2D443A004B
S1131DA843484F4F534520555345524E414D4500E6
S1091DB84E616D653A0066
S9030000FC
