S00F00004279676765726E2E7372656347
S11300000C9438000C9455000C9455000C94550035
S11300100C9455000C9455000C9455000C94550008
S11300200C9455000C9455000C9455000C945500F8
S11300300C9455000C9455000C9455000C945500E8
S11300400C9455000C9455000C9455000C945500D8
S11300500C9455000C9455000C9455000C945500C8
S11300600C9455000C9455000C9455000C945500B8
S113007011241FBECFEFD4E0DEBFCDBF11E0A0E05E
S1130080B1E0EAEBF7E002C005900D92A035B107AC
S1130090D9F721E0A0E5B1E001C01D92AA35B2076D
S11300A0E1F70E945E000C94DB030C94000085B71A
S11300B0806885BF80B7806280BF0895CF93DF9347
S11300C0CDB7DEB764970FB6F894DEBF0FBECDBFD1
S11300D08FEF81BB0E940B020E94FC010E9457001B
S11300E00E9464010E94A40078948DE190E09A83B8
S11300F0898388E090E09C838B8323E030E03E8317
S11301002D8324E030E038872F8325E030E03A87E0
S1130110298726E030E03C872B8727E030E03E87C4
S11301202D87988B8F8789E090E09A8B898B8AE062
S113013090E09C8B8B8B88E091E00E946402CE015E
S113014001960E94BB00FBCF0E94530141E06FE087
S11301508BE20E94080140E060EE8FE00E940801FB
S113016008950E945E0186958695869591E089277B
S1130170817090E008951F93CF93DF93EC010E9468
S1130180B100892BE9F16881798176956795769537
S113019067957695679581E390E00E942F016881C9
S11301A07981660F771F62957295707F7627607FDD
S11301B0762782E390E00E942F016A817B8185E3A8
S11301C090E00E942F018A819B81892BB1F010E07D
S11301D0812F90E0FC013296EE0FFF1FEC0FFD1F04
S11301E060817181C6960E942F011F5F212F30E02C
S11301F08A819B812817390758F30E94580104C04B
S113020089E191E00E946402DF91CF911F910895EA
S11302101F93CF93DF93182FD62FC42FC49800C0F9
S113022000C0000085E00E94F70100C000C000008B
S1130230812F0E94F70100C000C000008D2F0E9492
S1130240F70100C000C000008C2F0E94F70100C01D
S113025000C00000C49ADF91CF911F910895CF93FD
S1130260DF93D82FC62FC49800C000C0000082E0DE
S11302700E94F70100C000C000008D2F0E94F7010A
S113028000C000C000008C2F0E94F70100C000C015
S11302900000C49ADF91CF910895C49880EC0E9425
S11302A0F701C49A08950E94EE010E944D01089539
S11302B0C49887E80E94F701C49A0895C49880EA14
S11302C00E94F701C49A089585B7806885BF80B7F6
S11302D0806280BFE0910601F09107018EEA80837D
S11302E0E0910601F091070181EA8083E091060123
S11302F0F09107018AED8083E0910601F0910701F6
S113030082E18083E0910601F091070188EC80830B
S1130310E0910601F091070188EA8083E0910601EB
S1130320F09107018FE38083E0910601F0910701CA
S113033085ED8083E0910601F091070180E88083D8
S1130340E0910601F091070181E88083E0910601C4
S1130350F091070180E58083E0910601F0910701A7
S113036089ED8083E0910601F091070181E28083A9
S1130370E0910601F091070180E28083E09106019B
S1130380F091070182E08083E0910601F09107017A
S11303908BED8083E0910601F091070180E3808377
S11303A0E0910601F09107018DEA8083E091060156
S11303B0F09107011082E0910601F091070184EAAF
S11303C08083E0910601F091070186EA8083E09141
S11303D00601F09107018FEA80830895BE9887B3E0
S11303E0806B87BBC49A8DB181658DB908958FB92F
S11303F0779BFECF8FB1089585B7806885BF80B79E
S1130400806280BF08955F9BFECF8CB108955D9B91
S1130410FECF8CB9089510BC8FE189B988E18AB9FF
S11304208EE880BD63E072E087E092E00E941902EA
S113043008950F931F93CF93DF93EC018B010097E3
S113044031F46115710519F480E090E038C06EE074
S113045070E081E090E00E949102FC010097A1F31A
S113046080E883830115110571F01387028781E801
S113047083838091500190915101892B21F4F09351
S11304805101E09350012097C9F0D187C08783813F
S1130490826083838091520190915301892B71F47E
S11304A0F0935301E09352018091540190915501CE
S11304B0892B21F4F0935501E0935401CF01DF918E
S11304C0CF911F910F9108950F931F93CF93DF93B3
S11304D0E0915201F0915301238121FF1BC0EC01F3
S11304E000E010E089916091520170915301DB01A9
S11304F01896ED91FC911997882331F00995892B71
S113050089F30FEF1FEFEECF8AE00995892B11F4E1
S1130510C80102C08FEF9FEFDF91CF911F910F9120
S113052008950F931F93CF93DF93869F8001879F36
S1130530100D969F100D1124C8010E94AD02EC010C
S1130540009729F0A80160E070E00E94D403CE0176
S1130550DF91CF911F910F910895CF93DF93823054
S1130560910510F482E090E0E0915801F091590176
S113057020E030E0A0E0B0E0309739F140815181D3
S113058048175907B8F04817590771F482819381C5
S1130590109729F013969C938E9312972CC09093E6
S11305A059018093580127C02115310531F04217B4
S11305B0530718F0A901DB0101C0EF019A01BD0145
S11305C0DF010280F381E02DD7CF21153105F9F049
S11305D0281B390B2430310580F48A819B816115F5
S11305E0710521F0FB019383828304C09093590128
S11305F080935801FE01329644C0FE01E20FF31FBE
S11306008193919322503109398328833AC02091F0
S1130610560130915701232B41F42091020130916E
S1130620030130935701209356012091000130912A
S113063001012115310541F42DB73EB74091040164
S113064050910501241B350BE0915601F09157019F
S1130650E217F307A0F42E1B3F0B2817390778F095
S1130660AC014E5F5F4F2417350748F04E0F5F1FF4
S113067050935701409356018193919302C0E0E057
S1130680F0E0CF01DF91CF910895CF93DF930097EE
S113069009F487C0FC01329713821282C091580179
S11306A0D0915901209781F420813181280F391F7D
S11306B080915601909157018217930779F5F09331
S11306C05701E09356016DC0DE0120E030E0AE1723
S11306D0BF0750F412964D915C9113979D014115FB
S11306E0510509F1DA01F3CFB383A283408151812B
S11306F0840F951F8A179B0771F48D919C91119714
S1130700840F951F02969183808312968D919C91FC
S11307101397938382832115310529F4F0935901AA
S1130720E09358013EC0D9011396FC93EE931297BF
S11307304D915D91A40FB51FEA17FB0779F48081F1
S11307409181840F951F0296D90111969C938E93E3
S11307508281938113969C938E931297E0E0F0E04C
S11307608A819B81009719F0FE01EC01F9CFCE013B
S1130770029628813981820F931F2091560130916E
S113078057012817390769F4309729F41092590151
S11307901092580102C013821282D0935701C09361
S11307A05601DF91CF910895DC0101C06D93415052
S10D07B05040E0F70895F894FFCFDD
S11307BA00005A012000001053746172742070E51D
S11307CA2070726F6772616D0053656E6474652080
S11307DA696B6B650056656E7465722070E5206DF1
S11307EA656C64696E6700732049443A2025690A76
S11307FA0072206C656E6774683A2025780A0000D6
S9030000FC
