S00F00004279676765726E2E7372656347
S11300000C9438000C9455000C9455000C94550035
S11300100C9455000C9455000C9455000C94550008
S11300200C9455000C9455000C9455000C945500F8
S11300300C9455000C9455000C9455000C945500E8
S11300400C9455000C9455000C9455000C945500D8
S11300500C9455000C9455000C9455000C945500C8
S11300600C9455000C9455000C9455000C945500B8
S113007011241FBECFEFD4E0DEBFCDBF11E0A0E05E
S1130080B1E0E6E0F6E002C005900D92AA30B107B7
S1130090D9F721E0AAE0B1E001C01D92A431B20772
S11300A0E1F70E9480000C9401030C94000085B7D2
S11300B0806885BF80B7806280BF0895009731F063
S11300C000C000C0000001970097D1F708950F9376
S11300D01F93CF93DF938C01EB011C161D065CF478
S11300E0959AC8010E945E009598C8010E945E001E
S11300F021972097A9F7DF91CF911F910F91089530
S1130100CFEFC1BB0E945E010E944F010E945700C5
S11301100E949B0017BAC8BB0E943701B09B06C05F
S113012060E273E085E091E00E946700B19BF6CF46
S11301300E943701F3CF85B7806885BF80B780629E
S113014080BFE0910801F09109018EEA8083E0917B
S11301500801F091090181EA8083E0910801F0919E
S113016009018AED8083E0910801F091090182E19F
S11301708083E0910801F091090188EC8083E0918B
S11301800801F091090188EA8083E0910801F09167
S113019009018FE38083E0910801F091090185ED65
S11301A08083E0910801F091090180E88083E09167
S11301B00801F091090181E88083E0910801F09140
S11301C0090180E58083E0910801F091090189ED3E
S11301D08083E0910801F091090181E28083E0913C
S11301E00801F091090180E28083E0910801F09117
S11301F0090182E08083E0910801F09109018BED0F
S11302008083E0910801F091090180E38083E0910B
S11302100801F09109018DEA8083E0910801F091D1
S113022009011082E0910801F091090184EA8083B8
S1130230E0910801F091090186EA8083E0910801C8
S1130240F09109018FEA80830895E0910801F0910B
S1130250090180EB8083E0910801F091090110828B
S1130260E0910801F091090180E18083089520EB79
S113027040E830E0E0910801F09109012083842FE7
S1130280932FE0910601F0910701108201970097E6
S1130290C1F72F5F283B71F70E942501089585B7A8
S11302A0806885BF80B7806280BF08955F9BFECF62
S11302B08CB108955D9BFECF8CB9089510BC8FE17D
S11302C089B988E18AB98EE880BD66E571E08AE57E
S11302D091E00E946C0108950F931F93CF93DF93D5
S11302E0EC018B01009731F46115710519F480E07C
S11302F090E038C06EE070E081E090E00E94B701C9
S1130300FC010097A1F380E883830115110571F0C6
S11303101387028781E8838380910A0190910B01FE
S1130320892B21F4F0930B01E0930A012097C9F083
S1130330D187C08783818260838380910C019091EF
S11303400D01892B71F4F0930D01E0930C01809160
S11303500E0190910F01892B21F4F0930F01E0938A
S11303600E01CF01DF91CF911F910F9108950F934B
S11303701F93CF93DF93869F8001879F100D969FD5
S1130380100D1124C8010E94D301EC01009729F03B
S1130390A80160E070E00E94FA02CE01DF91CF91E3
S11303A01F910F910895CF93DF938230910510F43C
S11303B082E090E0E0911201F091130120E030E03E
S11303C0A0E0B0E0309739F14081518148175907D6
S11303D0B8F04817590771F482819381109729F076
S11303E013969C938E9312972CC090931301809331
S11303F0120127C02115310531F04217530718F0B7
S1130400A901DB0101C0EF019A01BD01DF010280F6
S1130410F381E02DD7CF21153105F9F0281B390BD5
S11304202430310580F48A819B816115710521F0A6
S1130430FB019383828304C0909313018093120180
S1130440FE01329644C0FE01E20FF31F81939193A3
S113045022503109398328833AC020911001309108
S11304601101232B41F420910201309103013093B7
S113047011012093100120910001309101012115F7
S1130480310541F42DB73EB7409104015091050167
S1130490241B350BE0911001F0911101E217F307D1
S11304A0A0F42E1B3F0B2817390778F0AC014E5FE0
S11304B05F4F2417350748F04E0F5F1F509311010B
S11304C0409310018193919302C0E0E0F0E0CF01EA
S11304D0DF91CF910895CF93DF93009709F487C0FC
S11304E0FC01329713821282C0911201D091130140
S11304F0209781F420813181280F391F80911001C8
S1130500909111018217930779F5F0931101E0930B
S113051010016DC0DE0120E030E0AE17BF0750F4DB
S113052012964D915C9113979D014115510509F166
S1130530DA01F3CFB383A28340815181840F951FE5
S11305408A179B0771F48D919C911197840F951FC5
S113055002969183808312968D919C911397938335
S113056082832115310529F4F0931301E0931201DC
S11305703EC0D9011396FC93EE9312974D915D9171
S1130580A40FB51FEA17FB0779F480819181840FCA
S1130590951F0296D90111969C938E938281938123
S11305A013969C938E931297E0E0F0E08A819B81EE
S11305B0009719F0FE01EC01F9CFCE0102962881D3
S11305C03981820F931F2091100130911101281756
S11305D0390769F4309729F410921301109212012B
S11305E002C013821282D0931101C0931001DF91D3
S11305F0CF910895DC0101C06D9341505040E0F764
S10906000895F894FFCFF9
S10D0606000014012000001200108F
S9030000FC
