S00F00004279676765726E2E7372656347
S11300000C9438000C9455000C9455000C94550035
S11300100C9455000C9455000C9455000C94550008
S11300200C9455000C9455000C9455000C945500F8
S11300300C9455000C9455000C9455000C945500E8
S11300400C9455000C9455000C9455000C945500D8
S11300500C9455000C9455000C9455000C945500C8
S11300600C9455000C9455000C9455000C945500B8
S113007011241FBECFEFD4E0DEBFCDBF11E0A0E05E
S1130080B1E0E0E4FFE002C005900D92A837B107AB
S1130090D9F721E0A8E7B1E001C01D92A238B20768
S11300A0E1F70E945E000C949E070C94000085B753
S11300B0806885BF80B7806280BF0895CF93DF9347
S11300C0CDB7DEB7A8970FB6F894DEBF0FBECDBF8D
S11300D08FEF81BB0E9404030E94F5020E94570027
S11300E00E945D020E94FA0078948DE190E09A8368
S11300F0898388E090E09C838B8323E030E03E8317
S11301002D8324E030E038872F8325E030E03A87E0
S1130110298726E030E03C872B8727E030E03E87C4
S11301202D87988B8F8789E090E09A8B898B8AE062
S113013090E09C8B8B8B88E091E00E9478030F2EDB
S1130140F9E1AF2EF1E0BF2EF02D0F2EF4E2CF2E09
S1130150F1E0DF2EF02D0F2EF3E3EF2EF1E0FF2E72
S1130160F02D0F2EF7E36F2EF1E07F2EF02DCE0150
S113017001960E941101CE0145960E9473018E8959
S11301808F938D898F93BF92AF920E945D03888D68
S11301908F938F898F93DF92CF920E945D03FF929A
S11301A0EF920E945D030FB6F894DEBF0FBECDBF81
S11301B08D899E894D97D9F68E01075E1F4F4E019A
S11301C099E2890E911CF801808191810E5F1F4F85
S11301D09F938F937F926F920E945D030F900F9075
S11301E00F900F900815190571F78AE090E00E94AE
S11301F07103BDCF0E944C0241E06FE08BE20E948C
S1130200E50140E060EE8FE00E94E50108950E9460
S1130210570286958695869591E08927817090E0AE
S113022008951F93CF93DF93EC010E940701892B5C
S113023009F451C0688179817695679576956795BB
S11302407695679581E390E00E9428026881798120
S1130250660F771F62957295707F7627607F762789
S113026082E390E00E94280288819981969587957F
S113027096958795969587959F938F938CE391E0B8
S11302809F938F930E945D036A817B8185E390E055
S11302900E9428020F900F900F900F908A819B81EB
S11302A0892BB1F010E0812F90E0FC013296EE0F23
S11302B0FF1FEC0FFD1F60817181C6960E9428020A
S11302C01F5F212F30E08A819B812817390758F35B
S11302D00E94510204C081E491E00E947803DF91FE
S11302E0CF911F910895EF92FF920F931F93CF9395
S11302F0DF937C010AC08DE491E00E9478038FEFC4
S11303009FE20197F1F700C000000E94570280FFAE
S1130310F2CF81E690E00E940C02EC0182E690E0CC
S11303200E940C0296958795929582958F708927E5
S11303309F708927CC0FDD1FCC0FDD1FCC0FDD1F75
S11303408C2B9D2BF701918380839F938F938FE553
S113035091E09F938F930E945D0385E690E00E9455
S11303600C02F701828393839F938F9389E691E034
S11303709F938F930E945D038DB79EB708960FB627
S1130380F8949EBF0FBE8DBFF70182819381892BA4
S1130390A9F087010C5F1F4FC0E0D0E0CE018A595D
S11303A09F4F0E940C02F801819391938F01219633
S11303B0F70122813381C217D30780F3DF91CF91F4
S11303C01F910F91FF90EF9008951F93CF93DF93A8
S11303D0182FD62FC42FC49800C000C0000085E099
S11303E00E94F00200C000C00000812F0E94F002B1
S11303F000C000C000008D2F0E94F00200C000C0A9
S113040000008C2F0E94F00200C000C00000C49ABB
S1130410DF91CF911F910895CF93C82FC49800C046
S113042000C0000083E00E94F00200C000C0000091
S11304308C2F0E94F00200C000C000008FEF0E94C9
S1130440F00200C000C00000C49A90E0CF9108956B
S1130450CF93DF93D82FC62FC49800C000C00000EC
S113046082E00E94F00200C000C000008D2F0E94B4
S1130470F00200C000C000008C2F0E94F00200C0F7
S113048000C00000C49ADF91CF910895C49880EC15
S11304900E94F002C49A08950E94E7020E94460254
S11304A00895C49887E80E94F002C49A0895C498F5
S11304B080EA0E94F002C49A089585B7806885BFD7
S11304C080B7806280BFE0910601F09107018EEA57
S11304D08083E0910601F091070181EA8083E09135
S11304E00601F09107018AED8083E0910601F09105
S11304F0070182E18083E0910601F091070188EC15
S11305008083E0910601F091070188EA8083E091FD
S11305100601F09107018FE38083E0910601F091D9
S1130520070185ED8083E0910601F091070180E8E1
S11305308083E0910601F091070181E88083E091D6
S11305400601F091070180E58083E0910601F091B6
S1130550070189ED8083E0910601F091070181E2B2
S11305608083E0910601F091070180E28083E091AD
S11305700601F091070182E08083E0910601F09189
S113058007018BED8083E0910601F091070180E380
S11305908083E0910601F09107018DEA8083E09168
S11305A00601F09107011082E0910601F091070124
S11305B084EA8083E0910601F091070186EA808352
S11305C0E0910601F09107018FEA80830895BE98B7
S11305D087B3806B87BBC49A8DB181658DB908954B
S11305E08FB9779BFECF8FB1089585B7806885BF9B
S11305F080B7806280BF08955F9BFECF8CB1089561
S11306005D9BFECF8CB9089510BC8FE189B988E158
S11306108AB98EE880BD6CEF72E080E093E00E94BE
S1130620120308950F931F93CF93DF93EC018B0173
S1130630009731F46115710519F480E090E038C039
S11306406EE070E081E090E00E947705FC01009785
S1130650A1F380E883830115110571F013870287E4
S113066081E883838091780190917901892B21F429
S1130670F0937901E09378012097C9F0D187C0877E
S113068083818260838380917A0190917B01892B9D
S113069071F4F0937B01E0937A0180917C01909155
S11306A07D01892B21F4F0937D01E0937C01CF013E
S11306B0DF91CF911F910F910895A0E0B0E0E3E6A0
S11306C0F3E00C947707FE01359661917191AF01C7
S11306D080917A0190917B010E94A503E2E00C9441
S11306E0930760917A0170917B010E94D706089567
S11306F00F931F93CF93DF93E0917A01F0917B01E5
S1130700238121FF1BC0EC0100E010E0899160917E
S11307107A0170917B01DB011896ED91FC91199798
S1130720882331F00995892B89F30FEF1FEFEECF62
S11307308AE00995892B11F4C80102C08FEF9FEF5D
S1130740DF91CF911F910F910895ACE0B0E0EBEAF7
S1130750F3E00C9467077C016B018A01FC011782AA
S11307601682838181FFBDC1CE0101964C01F70140
S11307709381F60193FD859193FF81916F01882305
S113078009F4ABC1853239F493FD859193FF8191CE
S11307906F01853229F4B70190E00E94D706E7CFB4
S11307A0512C312C20E02032A0F48B3269F030F44B
S11307B0803259F0833269F420612CC08D3239F0D3
S11307C0803339F4216026C02260246023C028606D
S11307D021C027FD27C030ED380F3A3078F426FFCA
S11307E006C0FAE05F9E300D1124532E13C08AE038
S11307F0389E300D1124332E20620CC08E3221F429
S113080026FD6BC1206406C08C3611F4206802C03A
S1130810883641F4F60193FD859193FF81916F0130
S11308208111C1CF982F9F7D9554933028F40C5F8C
S11308301F4FFFE3F9830DC0833631F0833771F026
S1130840833509F05BC022C0F801808189830E5F83
S11308501F4F44244394512C540115C03801F2E035
S11308606F0E711CF801A080B18026FF03C0652DB6
S113087070E002C06FEF7FEFC5012C870E94CC06A9
S11308802C0183012C852F77222E17C03801F2E02A
S11308906F0E711CF801A080B18026FF03C0652D86
S11308A070E002C06FEF7FEFC5012C870E94BA068B
S11308B02C012C852068222E830123FC1BC0832D50
S11308C090E048165906B0F4B70180E290E00E9427
S11308D0D7063A94F4CFF50127FC859127FE819140
S11308E05F01B70190E00E94D70631103A94F1E01D
S11308F04F1A51084114510471F7E5C0843611F0C0
S1130900893639F5F80127FF07C06081718182813A
S113091093810C5F1F4F08C060817181882777FD28
S11309208095982F0E5F1F4F2F76B22E97FF09C028
S113093090958095709561957F4F8F4F9F4F20685C
S1130940B22E2AE030E0A4010E940907A82EA818BC
S113095044C0853729F42F7EB22E2AE030E025C02A
S1130960F22FF97FBF2E8F36C1F018F4883579F055
S1130970B4C0803719F0883721F0AFC02F2F206121
S1130980B22EB4FE0DC08B2D8460B82E09C024FF96
S11309900AC09F2F9660B92E06C028E030E005C03B
S11309A020E130E002C020E132E0F801B7FE07C0E8
S11309B060817181828193810C5F1F4F06C06081C9
S11309C0718180E090E00E5F1F4FA4010E9409072F
S11309D0A82EA818FB2DFF77BF2EB6FE0BC02B2D1B
S11309E02E7FA51450F4B4FE0AC0B2FC08C02B2D0F
S11309F02E7E05C07A2C2B2D03C07A2C01C0752CB9
S1130A0024FF0DC0FE01EA0DF11D8081803311F435
S1130A10297E09C022FF06C07394739404C0822FF8
S1130A20867809F0739423FD13C020FF06C05A2C66
S1130A30731418F4530C5718732C731468F4B70117
S1130A4080E290E02C870E94D70673942C85F5CF22
S1130A50731410F4371801C0312C24FF12C0B701ED
S1130A6080E390E02C870E94D7062C8522FF17C0D4
S1130A7021FF03C088E590E002C088E790E0B70159
S1130A800CC0822F867859F021FD02C080E201C09B
S1130A908BE227FD8DE2B70190E00E94D706A514F2
S1130AA038F4B70180E390E00E94D7065A94F7CF58
S1130AB0AA94F401EA0DF11D8081B70190E00E942F
S1130AC0D706A110F5CF332009F451CEB70180E247
S1130AD090E00E94D7063A94F6CFF7018681978179
S1130AE002C08FEF9FEF2C96E2E10C9483070F93E3
S1130AF01F93CF93DF93869F8001879F100D969F4E
S1130B00100D1124C8010E949305EC01009729F0EF
S1130B10A80160E070E00E94C506CE01DF91CF918C
S1130B201F910F910895CF93DF938230910510F4B4
S1130B3082E090E0E0918001F091810120E030E0DA
S1130B40A0E0B0E0309739F140815181481759074E
S1130B50B8F04817590771F482819381109729F0EE
S1130B6013969C938E9312972CC09093810180933B
S1130B70800127C02115310531F04217530718F0C1
S1130B80A901DB0101C0EF019A01BD01DF0102806F
S1130B90F381E02DD7CF21153105F9F0281B390B4E
S1130BA02430310580F48A819B816115710521F01F
S1130BB0FB019383828304C090938101809380011D
S1130BC0FE01329644C0FE01E20FF31F819391931C
S1130BD022503109398328833AC020917E01309113
S1130BE07F01232B41F420910201309103013093C2
S1130BF07F0120937E012091000130910101211594
S1130C00310541F42DB73EB74091040150910501DF
S1130C10241B350BE0917E01F0917F01E217F3076D
S1130C20A0F42E1B3F0B2817390778F0AC014E5F58
S1130C305F4F2417350748F04E0F5F1F50937F0115
S1130C4040937E018193919302C0E0E0F0E0CF01F4
S1130C50DF91CF910895CF93DF93009709F487C074
S1130C60FC01329713821282C0918001D0918101DC
S1130C70209781F420813181280F391F80917E01D2
S1130C8090917F018217930779F5F0937F01E093A8
S1130C907E016DC0DE0120E030E0AE17BF0750F4E6
S1130CA012964D915C9113979D014115510509F1DF
S1130CB0DA01F3CFB383A28340815181840F951F5E
S1130CC08A179B0771F48D919C911197840F951F3E
S1130CD002969183808312968D919C9113979383AE
S1130CE082832115310529F4F0938101E093800179
S1130CF03EC0D9011396FC93EE9312974D915D91EA
S1130D00A40FB51FEA17FB0779F480819181840F42
S1130D10951F0296D90111969C938E93828193819B
S1130D2013969C938E931297E0E0F0E08A819B8166
S1130D30009719F0FE01EC01F9CFCE01029628814B
S1130D403981820F931F20917E0130917F012817F2
S1130D50390769F4309729F41092810110928001C7
S1130D6002C013821282D0937F01C0937E01DF916F
S1130D70CF910895FC010590615070400110D8F79F
S1130D80809590958E0F9F1F0895DC0101C06D938F
S1130D9041505040E0F70895FC01615070400190CB
S1130DA00110D8F7809590958E0F9F1F08950F938B
S1130DB01F93CF93DF93182F092FEB018B8181FDB4
S1130DC003C08FEF9FEF20C082FF10C04E815F8170
S1130DD02C813D81421753077CF4E881F9819F01FE
S1130DE02F5F3F4F39832883108306C0E885F98538
S1130DF0812F0995892B29F72E813F812F5F3F4F42
S1130E003F832E83812F902FDF91CF911F910F91DC
S1130E100895FA01AA27283051F1203181F1E8948C
S1130E206F936E7F6E5F7F4F8F4F9F4FAF4FB1E0D9
S1130E303ED0B4E03CD0670F781F891F9A1FA11DD4
S1130E40680F791F8A1F911DA11D6A0F711D811DD5
S1130E50911DA11D20D009F468943F912AE0269F9A
S1130E6011243019305D3193DEF6CF010895462FF9
S1130E704770405D4193B3E00FD0C9F7F6CF462FDA
S1130E804F70405D4A3318F0495D31FD4052419343
S1130E9002D0A9F7EACFB4E0A69597958795779500
S1130EA06795BA95C9F700976105710508959B0187
S1130EB0AC010A2E06945795479537952795BA9510
S1130EC0C9F7620F731F841F951FA01D08952F92E9
S1130ED03F924F925F926F927F928F929F92AF92C6
S1130EE0BF92CF92DF92EF92FF920F931F93CF9313
S1130EF0DF93CDB7DEB7CA1BDB0B0FB6F894DEBFAA
S1130F000FBECDBF09942A88398848885F846E84CF
S1130F107D848C849B84AA84B984C884DF80EE8019
S1130F20FD800C811B81AA81B981CE0FD11D0FB622
S1130F30F894DEBF0FBECDBFED010895F894FFCF46
S1130F40000082012000001053746172742070E567
S1130F502070726F6772616D0068206964203D20A3
S1130F602564200068206C656E677468203D202528
S1130F70642000683D200025642C20002569200A97
S1130F800053656E64746520696B6B650056656E0D
S1130F907465722070E5206D656C64696E6700731A
S1130FA02049443A2025690A0072206C656E6774F2
S10B0FB0683A2025780A0000CC
S9030000FC
